{
  "contractName": "MulaTokenCrowdSale",
  "abi": [
    {
      "inputs": [
        {
          "internalType": "uint256",
          "name": "rate",
          "type": "uint256"
        },
        {
          "internalType": "address payable",
          "name": "wallet",
          "type": "address"
        },
        {
          "internalType": "contract MulaToken",
          "name": "token",
          "type": "address"
        }
      ],
      "stateMutability": "nonpayable",
      "type": "constructor"
    },
    {
      "anonymous": false,
      "inputs": [
        {
          "indexed": true,
          "internalType": "address",
          "name": "previousOwner",
          "type": "address"
        },
        {
          "indexed": true,
          "internalType": "address",
          "name": "newOwner",
          "type": "address"
        }
      ],
      "name": "OwnershipTransferred",
      "type": "event"
    },
    {
      "inputs": [
        {
          "internalType": "enum MulaTokenCrowdSale.CrowdsaleStage",
          "name": "",
          "type": "uint8"
        }
      ],
      "name": "CrowdsaleStageBalance",
      "outputs": [
        {
          "internalType": "uint256",
          "name": "",
          "type": "uint256"
        }
      ],
      "stateMutability": "view",
      "type": "function",
      "constant": true
    },
    {
      "inputs": [],
      "name": "_rate",
      "outputs": [
        {
          "internalType": "uint256",
          "name": "",
          "type": "uint256"
        }
      ],
      "stateMutability": "view",
      "type": "function",
      "constant": true
    },
    {
      "inputs": [],
      "name": "_tokenContract",
      "outputs": [
        {
          "internalType": "contract MulaToken",
          "name": "",
          "type": "address"
        }
      ],
      "stateMutability": "view",
      "type": "function",
      "constant": true
    },
    {
      "inputs": [],
      "name": "_tokensSold",
      "outputs": [
        {
          "internalType": "uint256",
          "name": "",
          "type": "uint256"
        }
      ],
      "stateMutability": "view",
      "type": "function",
      "constant": true
    },
    {
      "inputs": [],
      "name": "_weiRaised",
      "outputs": [
        {
          "internalType": "uint256",
          "name": "",
          "type": "uint256"
        }
      ],
      "stateMutability": "view",
      "type": "function",
      "constant": true
    },
    {
      "inputs": [],
      "name": "investorHardCap",
      "outputs": [
        {
          "internalType": "uint256",
          "name": "",
          "type": "uint256"
        }
      ],
      "stateMutability": "view",
      "type": "function",
      "constant": true
    },
    {
      "inputs": [],
      "name": "investorMinCap",
      "outputs": [
        {
          "internalType": "uint256",
          "name": "",
          "type": "uint256"
        }
      ],
      "stateMutability": "view",
      "type": "function",
      "constant": true
    },
    {
      "inputs": [],
      "name": "owner",
      "outputs": [
        {
          "internalType": "address",
          "name": "",
          "type": "address"
        }
      ],
      "stateMutability": "view",
      "type": "function",
      "constant": true
    },
    {
      "inputs": [],
      "name": "renounceOwnership",
      "outputs": [],
      "stateMutability": "nonpayable",
      "type": "function"
    },
    {
      "inputs": [],
      "name": "stage",
      "outputs": [
        {
          "internalType": "enum MulaTokenCrowdSale.CrowdsaleStage",
          "name": "",
          "type": "uint8"
        }
      ],
      "stateMutability": "view",
      "type": "function",
      "constant": true
    },
    {
      "inputs": [
        {
          "internalType": "address",
          "name": "newOwner",
          "type": "address"
        }
      ],
      "name": "transferOwnership",
      "outputs": [],
      "stateMutability": "nonpayable",
      "type": "function"
    },
    {
      "inputs": [
        {
          "internalType": "uint256",
          "name": "_numberOfTokens",
          "type": "uint256"
        }
      ],
      "name": "participate",
      "outputs": [
        {
          "internalType": "bool",
          "name": "success",
          "type": "bool"
        }
      ],
      "stateMutability": "payable",
      "type": "function",
      "payable": true
    },
    {
      "inputs": [
        {
          "internalType": "uint256",
          "name": "_stage",
          "type": "uint256"
        }
      ],
      "name": "updateStage",
      "outputs": [
        {
          "internalType": "bool",
          "name": "success",
          "type": "bool"
        }
      ],
      "stateMutability": "nonpayable",
      "type": "function"
    },
    {
      "inputs": [],
      "name": "getStageBalance",
      "outputs": [
        {
          "internalType": "uint256",
          "name": "",
          "type": "uint256"
        }
      ],
      "stateMutability": "view",
      "type": "function",
      "constant": true
    },
    {
      "inputs": [
        {
          "internalType": "address",
          "name": "_participant",
          "type": "address"
        }
      ],
      "name": "getParticipantGivings",
      "outputs": [
        {
          "internalType": "uint256",
          "name": "",
          "type": "uint256"
        }
      ],
      "stateMutability": "view",
      "type": "function",
      "constant": true
    },
    {
      "inputs": [
        {
          "internalType": "address",
          "name": "_participant",
          "type": "address"
        }
      ],
      "name": "getParticipantReceivings",
      "outputs": [
        {
          "internalType": "uint256",
          "name": "",
          "type": "uint256"
        }
      ],
      "stateMutability": "view",
      "type": "function",
      "constant": true
    },
    {
      "inputs": [],
      "name": "r",
      "outputs": [],
      "stateMutability": "nonpayable",
      "type": "function"
    }
  ],
  "bytecode": "0x6080604052600060045566071afd498d00006008556802b5e3af16b18800006009556004600d60006101000a81548160ff021916908360058111156200006e577f4e487b7100000000000000000000000000000000000000000000000000000000600052602160045260246000fd5b02179055503480156200008057600080fd5b5060405162002b5d38038062002b5d8339818101604052810190620000a6919062000ad7565b6000620000b86200023c60201b60201c565b9050806000806101000a81548173ffffffffffffffffffffffffffffffffffffffff021916908373ffffffffffffffffffffffffffffffffffffffff1602179055508073ffffffffffffffffffffffffffffffffffffffff16600073ffffffffffffffffffffffffffffffffffffffff167f8be0079c531659141344cd1fd0a4f28419497f9722a3daafe3b4186f6b6457e060405160405180910390a35033600160006101000a81548173ffffffffffffffffffffffffffffffffffffffff021916908373ffffffffffffffffffffffffffffffffffffffff16021790555080600260006101000a81548173ffffffffffffffffffffffffffffffffffffffff021916908373ffffffffffffffffffffffffffffffffffffffff1602179055508260038190555081600760006101000a81548173ffffffffffffffffffffffffffffffffffffffff021916908373ffffffffffffffffffffffffffffffffffffffff1602179055506200023260046200024460201b60201c565b5050505062000c64565b600033905090565b6000620002566200023c60201b60201c565b73ffffffffffffffffffffffffffffffffffffffff166200027c62000a6960201b60201c565b73ffffffffffffffffffffffffffffffffffffffff1614620002d5576040517f08c379a0000000000000000000000000000000000000000000000000000000008152600401620002cc9062000b54565b60405180910390fd5b816000600581111562000311577f4e487b7100000000000000000000000000000000000000000000000000000000600052602160045260246000fd5b141562000419576000600d60006101000a81548160ff0219169083600581111562000365577f4e487b7100000000000000000000000000000000000000000000000000000000600052602160045260246000fd5b0217905550624c4b40600e6000600d60009054906101000a900460ff166005811115620003bb577f4e487b7100000000000000000000000000000000000000000000000000000000600052602160045260246000fd5b6005811115620003f4577f4e487b7100000000000000000000000000000000000000000000000000000000600052602160045260246000fd5b815260200190815260200160002081905550655af3107a400060038190555062000a60565b816001600581111562000455577f4e487b7100000000000000000000000000000000000000000000000000000000600052602160045260246000fd5b14156200055d576001600d60006101000a81548160ff02191690836005811115620004a9577f4e487b7100000000000000000000000000000000000000000000000000000000600052602160045260246000fd5b0217905550624c4b40600e6000600d60009054906101000a900460ff166005811115620004ff577f4e487b7100000000000000000000000000000000000000000000000000000000600052602160045260246000fd5b600581111562000538577f4e487b7100000000000000000000000000000000000000000000000000000000600052602160045260246000fd5b81526020019081526020016000208190555065b5e620f4800060038190555062000a5f565b816002600581111562000599577f4e487b7100000000000000000000000000000000000000000000000000000000600052602160045260246000fd5b1415620006a2576002600d60006101000a81548160ff02191690836005811115620005ed577f4e487b7100000000000000000000000000000000000000000000000000000000600052602160045260246000fd5b0217905550624c4b40600e6000600d60009054906101000a900460ff16600581111562000643577f4e487b7100000000000000000000000000000000000000000000000000000000600052602160045260246000fd5b60058111156200067c577f4e487b7100000000000000000000000000000000000000000000000000000000600052602160045260246000fd5b8152602001908152602001600020819055506601c6bf5263400060038190555062000a5e565b8160036005811115620006de577f4e487b7100000000000000000000000000000000000000000000000000000000600052602160045260246000fd5b1415620007e7576003600d60006101000a81548160ff0219169083600581111562000732577f4e487b7100000000000000000000000000000000000000000000000000000000600052602160045260246000fd5b0217905550624c4b40600e6000600d60009054906101000a900460ff16600581111562000788577f4e487b7100000000000000000000000000000000000000000000000000000000600052602160045260246000fd5b6005811115620007c1577f4e487b7100000000000000000000000000000000000000000000000000000000600052602160045260246000fd5b815260200190815260200160002081905550662386f26fc1000060038190555062000a5d565b816004600581111562000823577f4e487b7100000000000000000000000000000000000000000000000000000000600052602160045260246000fd5b141562000924576004600d60006101000a81548160ff0219169083600581111562000877577f4e487b7100000000000000000000000000000000000000000000000000000000600052602160045260246000fd5b02179055506000600e6000600d60009054906101000a900460ff166005811115620008cb577f4e487b7100000000000000000000000000000000000000000000000000000000600052602160045260246000fd5b600581111562000904577f4e487b7100000000000000000000000000000000000000000000000000000000600052602160045260246000fd5b815260200190815260200160002081905550600060038190555062000a5c565b816005808111156200095f577f4e487b7100000000000000000000000000000000000000000000000000000000600052602160045260246000fd5b141562000a5b576005600d60006101000a81548160ff02191690836005811115620009b3577f4e487b7100000000000000000000000000000000000000000000000000000000600052602160045260246000fd5b02179055506000600e6000600d60009054906101000a900460ff16600581111562000a07577f4e487b7100000000000000000000000000000000000000000000000000000000600052602160045260246000fd5b600581111562000a40577f4e487b7100000000000000000000000000000000000000000000000000000000600052602160045260246000fd5b81526020019081526020016000208190555060006003819055505b5b5b5b5b5b60019050919050565b60008060009054906101000a900473ffffffffffffffffffffffffffffffffffffffff16905090565b60008151905062000aa38162000c16565b92915050565b60008151905062000aba8162000c30565b92915050565b60008151905062000ad18162000c4a565b92915050565b60008060006060848603121562000aed57600080fd5b600062000afd8682870162000ac0565b935050602062000b108682870162000a92565b925050604062000b238682870162000aa9565b9150509250925092565b600062000b3c60208362000b76565b915062000b498262000bed565b602082019050919050565b6000602082019050818103600083015262000b6f8162000b2d565b9050919050565b600082825260208201905092915050565b600062000b948262000bc3565b9050919050565b600062000ba88262000bc3565b9050919050565b600062000bbc8262000b87565b9050919050565b600073ffffffffffffffffffffffffffffffffffffffff82169050919050565b6000819050919050565b7f4f776e61626c653a2063616c6c6572206973206e6f7420746865206f776e6572600082015250565b62000c218162000b9b565b811462000c2d57600080fd5b50565b62000c3b8162000baf565b811462000c4757600080fd5b50565b62000c558162000be3565b811462000c6157600080fd5b50565b611ee98062000c746000396000f3fe6080604052600436106100fe5760003560e01c8063a824d05611610095578063c040e6b811610064578063c040e6b814610308578063c85bd44914610333578063d8fe895314610370578063ed5db874146103ad578063f2fde38b146103d8576100fe565b8063a824d05614610238578063b25d7f5414610263578063b4f704df1461028e578063bf20dfa3146102cb576100fe565b806383bebced116100d157806383bebced14610187578063845c9306146101b25780638da5cb5b146101e257806394a5aa8d1461020d576100fe565b80636026e277146101035780636c8ae38c1461012e578063715018a6146101455780637cf27c051461015c575b600080fd5b34801561010f57600080fd5b50610118610401565b6040516101259190611a13565b60405180910390f35b34801561013a57600080fd5b50610143610427565b005b34801561015157600080fd5b5061015a6104ab565b005b34801561016857600080fd5b506101716105e5565b60405161017e9190611b09565b60405180910390f35b34801561019357600080fd5b5061019c61067f565b6040516101a99190611b09565b60405180910390f35b6101cc60048036038101906101c79190611845565b610685565b6040516101d991906119f8565b60405180910390f35b3480156101ee57600080fd5b506101f7610705565b60405161020491906119b4565b60405180910390f35b34801561021957600080fd5b5061022261072e565b60405161022f9190611b09565b60405180910390f35b34801561024457600080fd5b5061024d610734565b60405161025a9190611b09565b60405180910390f35b34801561026f57600080fd5b5061027861073a565b6040516102859190611b09565b60405180910390f35b34801561029a57600080fd5b506102b560048036038101906102b09190611845565b610740565b6040516102c291906119f8565b60405180910390f35b3480156102d757600080fd5b506102f260048036038101906102ed919061181c565b610f2f565b6040516102ff9190611b09565b60405180910390f35b34801561031457600080fd5b5061031d610f47565b60405161032a9190611a2e565b60405180910390f35b34801561033f57600080fd5b5061035a600480360381019061035591906117ca565b610f5a565b6040516103679190611b09565b60405180910390f35b34801561037c57600080fd5b50610397600480360381019061039291906117ca565b610fa3565b6040516103a49190611b09565b60405180910390f35b3480156103b957600080fd5b506103c2610fec565b6040516103cf9190611b09565b60405180910390f35b3480156103e457600080fd5b506103ff60048036038101906103fa91906117ca565b610ff2565b005b600260009054906101000a900473ffffffffffffffffffffffffffffffffffffffff1681565b600260009054906101000a900473ffffffffffffffffffffffffffffffffffffffff1673ffffffffffffffffffffffffffffffffffffffff16635f412d4f6040518163ffffffff1660e01b8152600401600060405180830381600087803b15801561049157600080fd5b505af11580156104a5573d6000803e3d6000fd5b50505050565b6104b361119b565b73ffffffffffffffffffffffffffffffffffffffff166104d1610705565b73ffffffffffffffffffffffffffffffffffffffff1614610527576040517f08c379a000000000000000000000000000000000000000000000000000000000815260040161051e90611a89565b60405180910390fd5b600073ffffffffffffffffffffffffffffffffffffffff1660008054906101000a900473ffffffffffffffffffffffffffffffffffffffff1673ffffffffffffffffffffffffffffffffffffffff167f8be0079c531659141344cd1fd0a4f28419497f9722a3daafe3b4186f6b6457e060405160405180910390a360008060006101000a81548173ffffffffffffffffffffffffffffffffffffffff021916908373ffffffffffffffffffffffffffffffffffffffff160217905550565b6000600e6000600d60009054906101000a900460ff166005811115610633577f4e487b7100000000000000000000000000000000000000000000000000000000600052602160045260246000fd5b600581111561066b577f4e487b7100000000000000000000000000000000000000000000000000000000600052602160045260246000fd5b815260200190815260200160002054905090565b60035481565b60008061069d600354846111a390919063ffffffff16565b90506106ab348285336111b9565b6106b53384611493565b6106c033828561154f565b82600460008282546106d29190611b35565b9250508190555080600560008282546106eb9190611b35565b925050819055506106fb83611628565b6001915050919050565b60008060009054906101000a900473ffffffffffffffffffffffffffffffffffffffff16905090565b60055481565b60045481565b60085481565b600061074a61119b565b73ffffffffffffffffffffffffffffffffffffffff16610768610705565b73ffffffffffffffffffffffffffffffffffffffff16146107be576040517f08c379a00000000000000000000000000000000000000000000000000000000081526004016107b590611a89565b60405180910390fd5b81600060058111156107f9577f4e487b7100000000000000000000000000000000000000000000000000000000600052602160045260246000fd5b14156108fc576000600d60006101000a81548160ff0219169083600581111561084b577f4e487b7100000000000000000000000000000000000000000000000000000000600052602160045260246000fd5b0217905550624c4b40600e6000600d60009054906101000a900460ff1660058111156108a0577f4e487b7100000000000000000000000000000000000000000000000000000000600052602160045260246000fd5b60058111156108d8577f4e487b7100000000000000000000000000000000000000000000000000000000600052602160045260246000fd5b815260200190815260200160002081905550655af3107a4000600381905550610f26565b8160016005811115610937577f4e487b7100000000000000000000000000000000000000000000000000000000600052602160045260246000fd5b1415610a3a576001600d60006101000a81548160ff02191690836005811115610989577f4e487b7100000000000000000000000000000000000000000000000000000000600052602160045260246000fd5b0217905550624c4b40600e6000600d60009054906101000a900460ff1660058111156109de577f4e487b7100000000000000000000000000000000000000000000000000000000600052602160045260246000fd5b6005811115610a16577f4e487b7100000000000000000000000000000000000000000000000000000000600052602160045260246000fd5b81526020019081526020016000208190555065b5e620f48000600381905550610f25565b8160026005811115610a75577f4e487b7100000000000000000000000000000000000000000000000000000000600052602160045260246000fd5b1415610b79576002600d60006101000a81548160ff02191690836005811115610ac7577f4e487b7100000000000000000000000000000000000000000000000000000000600052602160045260246000fd5b0217905550624c4b40600e6000600d60009054906101000a900460ff166005811115610b1c577f4e487b7100000000000000000000000000000000000000000000000000000000600052602160045260246000fd5b6005811115610b54577f4e487b7100000000000000000000000000000000000000000000000000000000600052602160045260246000fd5b8152602001908152602001600020819055506601c6bf52634000600381905550610f24565b8160036005811115610bb4577f4e487b7100000000000000000000000000000000000000000000000000000000600052602160045260246000fd5b1415610cb8576003600d60006101000a81548160ff02191690836005811115610c06577f4e487b7100000000000000000000000000000000000000000000000000000000600052602160045260246000fd5b0217905550624c4b40600e6000600d60009054906101000a900460ff166005811115610c5b577f4e487b7100000000000000000000000000000000000000000000000000000000600052602160045260246000fd5b6005811115610c93577f4e487b7100000000000000000000000000000000000000000000000000000000600052602160045260246000fd5b815260200190815260200160002081905550662386f26fc10000600381905550610f23565b8160046005811115610cf3577f4e487b7100000000000000000000000000000000000000000000000000000000600052602160045260246000fd5b1415610def576004600d60006101000a81548160ff02191690836005811115610d45577f4e487b7100000000000000000000000000000000000000000000000000000000600052602160045260246000fd5b02179055506000600e6000600d60009054906101000a900460ff166005811115610d98577f4e487b7100000000000000000000000000000000000000000000000000000000600052602160045260246000fd5b6005811115610dd0577f4e487b7100000000000000000000000000000000000000000000000000000000600052602160045260246000fd5b8152602001908152602001600020819055506000600381905550610f22565b81600580811115610e29577f4e487b7100000000000000000000000000000000000000000000000000000000600052602160045260246000fd5b1415610f21576005600d60006101000a81548160ff02191690836005811115610e7b577f4e487b7100000000000000000000000000000000000000000000000000000000600052602160045260246000fd5b02179055506000600e6000600d60009054906101000a900460ff166005811115610ece577f4e487b7100000000000000000000000000000000000000000000000000000000600052602160045260246000fd5b6005811115610f06577f4e487b7100000000000000000000000000000000000000000000000000000000600052602160045260246000fd5b81526020019081526020016000208190555060006003819055505b5b5b5b5b5b60019050919050565b600e6020528060005260406000206000915090505481565b600d60009054906101000a900460ff1681565b6000600b60008373ffffffffffffffffffffffffffffffffffffffff1673ffffffffffffffffffffffffffffffffffffffff168152602001908152602001600020549050919050565b6000600a60008373ffffffffffffffffffffffffffffffffffffffff1673ffffffffffffffffffffffffffffffffffffffff168152602001908152602001600020549050919050565b60095481565b610ffa61119b565b73ffffffffffffffffffffffffffffffffffffffff16611018610705565b73ffffffffffffffffffffffffffffffffffffffff161461106e576040517f08c379a000000000000000000000000000000000000000000000000000000000815260040161106590611a89565b60405180910390fd5b600073ffffffffffffffffffffffffffffffffffffffff168173ffffffffffffffffffffffffffffffffffffffff1614156110de576040517f08c379a00000000000000000000000000000000000000000000000000000000081526004016110d590611a69565b60405180910390fd5b8073ffffffffffffffffffffffffffffffffffffffff1660008054906101000a900473ffffffffffffffffffffffffffffffffffffffff1673ffffffffffffffffffffffffffffffffffffffff167f8be0079c531659141344cd1fd0a4f28419497f9722a3daafe3b4186f6b6457e060405160405180910390a3806000806101000a81548173ffffffffffffffffffffffffffffffffffffffff021916908373ffffffffffffffffffffffffffffffffffffffff16021790555050565b600033905090565b600081836111b19190611b8b565b905092915050565b8284146111fb576040517f08c379a00000000000000000000000000000000000000000000000000000000081526004016111f290611a49565b60405180910390fd5b81600260009054906101000a900473ffffffffffffffffffffffffffffffffffffffff1673ffffffffffffffffffffffffffffffffffffffff166370a08231306040518263ffffffff1660e01b815260040161125791906119b4565b60206040518083038186803b15801561126f57600080fd5b505afa158015611283573d6000803e3d6000fd5b505050506040513d601f19601f820116820180604052508101906112a7919061186e565b10156112e8576040517f08c379a00000000000000000000000000000000000000000000000000000000081526004016112df90611ac9565b60405180910390fd5b60046005811115611322577f4e487b7100000000000000000000000000000000000000000000000000000000600052602160045260246000fd5b600d60009054906101000a900460ff16600581111561136a577f4e487b7100000000000000000000000000000000000000000000000000000000600052602160045260246000fd5b1415806113f657506005808111156113ab577f4e487b7100000000000000000000000000000000000000000000000000000000600052602160045260246000fd5b600d60009054906101000a900460ff1660058111156113f3577f4e487b7100000000000000000000000000000000000000000000000000000000600052602160045260246000fd5b14155b611435576040517f08c379a000000000000000000000000000000000000000000000000000000000815260040161142c90611ae9565b60405180910390fd5b61143f81846116e7565b61147e576040517f08c379a000000000000000000000000000000000000000000000000000000000815260040161147590611aa9565b60405180910390fd5b60085483101561148d57600080fd5b50505050565b600260009054906101000a900473ffffffffffffffffffffffffffffffffffffffff1673ffffffffffffffffffffffffffffffffffffffff1663a9059cbb83836040518363ffffffff1660e01b81526004016114f09291906119cf565b602060405180830381600087803b15801561150a57600080fd5b505af115801561151e573d6000803e3d6000fd5b505050506040513d601f19601f8201168201806040525081019061154291906117f3565b61154b57600080fd5b5050565b600061155a84610fa3565b9050600061156785610f5a565b9050600061157e858461173590919063ffffffff16565b90506000611595858461173590919063ffffffff16565b905081600a60008973ffffffffffffffffffffffffffffffffffffffff1673ffffffffffffffffffffffffffffffffffffffff1681526020019081526020016000208190555080600b60008973ffffffffffffffffffffffffffffffffffffffff1673ffffffffffffffffffffffffffffffffffffffff1681526020019081526020016000208190555050505050505050565b60006116326105e5565b90506000611649838361174b90919063ffffffff16565b905080600e6000600d60009054906101000a900460ff166005811115611698577f4e487b7100000000000000000000000000000000000000000000000000000000600052602160045260246000fd5b60058111156116d0577f4e487b7100000000000000000000000000000000000000000000000000000000600052602160045260246000fd5b815260200190815260200160002081905550505050565b6000806116f384610fa3565b9050600061170a848361173590919063ffffffff16565b9050600854811015801561172057506009548111155b61172957600080fd5b60019250505092915050565b600081836117439190611b35565b905092915050565b600081836117599190611be5565b905092915050565b60008135905061177081611e5e565b92915050565b60008151905061178581611e75565b92915050565b60008135905061179a81611e8c565b92915050565b6000813590506117af81611e9c565b92915050565b6000815190506117c481611e9c565b92915050565b6000602082840312156117dc57600080fd5b60006117ea84828501611761565b91505092915050565b60006020828403121561180557600080fd5b600061181384828501611776565b91505092915050565b60006020828403121561182e57600080fd5b600061183c8482850161178b565b91505092915050565b60006020828403121561185757600080fd5b6000611865848285016117a0565b91505092915050565b60006020828403121561188057600080fd5b600061188e848285016117b5565b91505092915050565b6118a081611c19565b82525050565b6118af81611c2b565b82525050565b6118be81611c74565b82525050565b6118cd81611c98565b82525050565b60006118e0603483611b24565b91506118eb82611d08565b604082019050919050565b6000611903602683611b24565b915061190e82611d57565b604082019050919050565b6000611926602083611b24565b915061193182611da6565b602082019050919050565b6000611949602083611b24565b915061195482611dcf565b602082019050919050565b600061196c601d83611b24565b915061197782611df8565b602082019050919050565b600061198f601483611b24565b915061199a82611e21565b602082019050919050565b6119ae81611c6a565b82525050565b60006020820190506119c96000830184611897565b92915050565b60006040820190506119e46000830185611897565b6119f160208301846119a5565b9392505050565b6000602082019050611a0d60008301846118a6565b92915050565b6000602082019050611a2860008301846118b5565b92915050565b6000602082019050611a4360008301846118c4565b92915050565b60006020820190508181036000830152611a62816118d3565b9050919050565b60006020820190508181036000830152611a82816118f6565b9050919050565b60006020820190508181036000830152611aa281611919565b9050919050565b60006020820190508181036000830152611ac28161193c565b9050919050565b60006020820190508181036000830152611ae28161195f565b9050919050565b60006020820190508181036000830152611b0281611982565b9050919050565b6000602082019050611b1e60008301846119a5565b92915050565b600082825260208201905092915050565b6000611b4082611c6a565b9150611b4b83611c6a565b9250827fffffffffffffffffffffffffffffffffffffffffffffffffffffffffffffffff03821115611b8057611b7f611caa565b5b828201905092915050565b6000611b9682611c6a565b9150611ba183611c6a565b9250817fffffffffffffffffffffffffffffffffffffffffffffffffffffffffffffffff0483118215151615611bda57611bd9611caa565b5b828202905092915050565b6000611bf082611c6a565b9150611bfb83611c6a565b925082821015611c0e57611c0d611caa565b5b828203905092915050565b6000611c2482611c4a565b9050919050565b60008115159050919050565b6000819050611c4582611e4a565b919050565b600073ffffffffffffffffffffffffffffffffffffffff82169050919050565b6000819050919050565b6000611c7f82611c86565b9050919050565b6000611c9182611c4a565b9050919050565b6000611ca382611c37565b9050919050565b7f4e487b7100000000000000000000000000000000000000000000000000000000600052601160045260246000fd5b7f4e487b7100000000000000000000000000000000000000000000000000000000600052602160045260246000fd5b7f616d6f756e742073656e742073686f756c6420626520657175616c20746f206760008201527f6976696e67207065722073746167652072617465000000000000000000000000602082015250565b7f4f776e61626c653a206e6577206f776e657220697320746865207a65726f206160008201527f6464726573730000000000000000000000000000000000000000000000000000602082015250565b7f4f776e61626c653a2063616c6c6572206973206e6f7420746865206f776e6572600082015250565b7f72657175657374206e6f742077697468696e20746865206361702072616e6765600082015250565b7f746f6b656e20726571756573746564206e6f7420617661696c61626c65000000600082015250565b7f73616c65206e6f7420696e2070726f6772657373000000000000000000000000600082015250565b60068110611e5b57611e5a611cd9565b5b50565b611e6781611c19565b8114611e7257600080fd5b50565b611e7e81611c2b565b8114611e8957600080fd5b50565b60068110611e9957600080fd5b50565b611ea581611c6a565b8114611eb057600080fd5b5056fea2646970667358221220e2fc776edfce51ef39c484d1a73dd806b32a020e392fb07cd7a77fcccce4850b64736f6c63430008040033",
  "immutableReferences": {},
  "source": "pragma solidity^0.8;\n\n\nimport \"./MulaToken.sol\"; \nimport \"@openzeppelin/contracts/access/Ownable.sol\";\nimport \"@openzeppelin/contracts/utils/math/SafeMath.sol\";\n\ncontract MulaTokenCrowdSale  is Ownable{\n\n    using SafeMath for uint256;\n    address payable admin;\n    MulaToken public _tokenContract;\n    uint256 public _rate; //1MULA == 0.00001 ETH\n    uint256 public _tokensSold =0;\n    uint256 public _weiRaised;\n    uint256  _tokensReamaining; \n    address payable  _wallet; \n    // Track investor contributions\n    uint256 public investorMinCap = 2000000000000000; // 0.002 ether\n    uint256 public investorHardCap = 50000000000000000000; // 50 ether\n\n    mapping (address => uint256) _contributions;\n    mapping (address => uint256) _receiving;\n    uint numParticipants;\n    // Crowdsale Stages\n    enum CrowdsaleStage { PreICO_1,PreICO_2,PreICO_3, ICO,Paused,Ended }\n    // Default to presale stage\n    CrowdsaleStage public stage = CrowdsaleStage.Paused;\n    mapping(CrowdsaleStage=> uint256) public CrowdsaleStageBalance;\n\n\n    constructor(uint256 rate, address payable wallet, MulaToken token){\n        //assign an admin\n        admin =  payable (msg.sender);\n        //link to token contract \n        _tokenContract = token;\n        //token price \n        _rate = rate;\n        //token wallet \n        _wallet = wallet;\n        //set default stage balance \n        updateStage(4);\n    }\n    function participate(uint256 _numberOfTokens) public payable returns (bool success){\n        uint256 giving = _numberOfTokens.mul(_rate);\n        \n        _preValidateParticipation(msg.value, giving, _numberOfTokens, msg.sender);\n        //require that the transaction is successful \n        _processParticipation(msg.sender, _numberOfTokens);\n        //record participant givings and receivings\n        _updateParticipantBalance(msg.sender,giving,_numberOfTokens);\n        //track number of tokens sold  and amount raised\n        _tokensSold += _numberOfTokens;\n        _weiRaised += giving;\n        //subtract from crowdsale stage balance \n        _subFromCrowdsaleStageBalance(_numberOfTokens);\n        return true;\n    }\n    //sets the ICO Stage, rates  and the CrowdsaleStageBalance \n    function updateStage(uint _stage)public onlyOwner returns (bool success){\n\n        if(uint(CrowdsaleStage.PreICO_1) == _stage) {\n          stage = CrowdsaleStage.PreICO_1;\n          CrowdsaleStageBalance[stage]=5000000; //\n          _rate = 100000000000000; //0.0001 eth == 500 eth\n        } else if (uint(CrowdsaleStage.PreICO_2) == _stage) {\n          stage = CrowdsaleStage.PreICO_2;\n          CrowdsaleStageBalance[stage]=5000000;\n           _rate = 200000000000000; //0.0002 eth\n        }else if (uint(CrowdsaleStage.PreICO_3) == _stage) {\n          stage = CrowdsaleStage.PreICO_3;\n          CrowdsaleStageBalance[stage]=5000000;\n           _rate = 500000000000000; //0.0005 eth\n        }else if(uint(CrowdsaleStage.ICO) == _stage){\n            stage = CrowdsaleStage.ICO;\n          CrowdsaleStageBalance[stage]=5000000;\n           _rate = 10000000000000000; //0.01 eth\n        }else if(uint(CrowdsaleStage.Paused) == _stage){\n            stage = CrowdsaleStage.Paused;\n          CrowdsaleStageBalance[stage]=0;\n          _rate = 0; //0.00 eth\n        }else if(uint(CrowdsaleStage.Ended) == _stage){\n            stage = CrowdsaleStage.Ended;\n          CrowdsaleStageBalance[stage]=0;\n          _rate = 0; //0.00 eth\n        }\n\n\n        return true;\n    }\n    function getStageBalance() public view returns (uint256) {\n        return CrowdsaleStageBalance[stage];\n    }\n    function getParticipantGivings(address _participant) public view returns (uint256){\n        return _contributions[_participant];\n    }\n    function getParticipantReceivings(address _participant) public view returns (uint256){\n        return _receiving[_participant];\n    }\n    function _updateParticipantBalance(address _participant, uint256 _giving,uint256 _numOfTokens) internal{\n        uint256 oldGivings = getParticipantGivings(_participant);\n        uint256 oldReceivings = getParticipantReceivings(_participant);\n        \n        uint256 newGivings = oldGivings.add(_giving);\n        uint256 newReceiving = oldReceivings.add(_numOfTokens);\n        \n        _contributions[_participant] = newGivings;\n        _receiving[_participant] = newReceiving;\n    }\n    function _isIndividualCapped(address _participant, uint256 _weiAmount)  internal view returns (bool){\n        uint256 _oldGiving = getParticipantGivings(_participant);\n        uint256 _newGiving = _oldGiving.add(_weiAmount);\n        require(_newGiving >= investorMinCap && _newGiving <= investorHardCap);\n        return true;\n    }\n\n    function _addToCrowdsaleStageBalance(uint256 amount)  internal{\n        uint256 currentBal = getStageBalance();\n        uint256 newBal = currentBal.add(amount);\n        CrowdsaleStageBalance[stage]=newBal;\n    }\n    function _subFromCrowdsaleStageBalance(uint256 amount)  internal{\n        uint256 currentBal = getStageBalance();\n        uint256 newBal = currentBal.sub(amount);\n        CrowdsaleStageBalance[stage]=newBal;\n    }\n    function _preValidateParticipation(uint256 _sentValue, uint256 _requestedValue,uint256 _numberOfTokens, address _participant) internal view {\n        //require that the value is equal to tokens \n        //||can also check that the giving value is not zero\n        require(_sentValue == _requestedValue,'amount sent should be equal to giving per stage rate');\n        //Require that contract has enough tokens \n        require(_tokenContract.balanceOf(address(this)) >= _numberOfTokens,'token requested not available');\n        // require that the ico stage is not paused or ended \n        require(stage != CrowdsaleStage.Paused || stage !=CrowdsaleStage.Ended,'sale not in progress');\n        // require that participant giving is between the caped range\n        require(_isIndividualCapped(_participant,  _requestedValue),'request not within the cap range');\n        // require that participant shoudl at anytime give above the minimum cap\n        require(_requestedValue >= investorMinCap );\n        this;\n    }\n    function _processParticipation(address recipient, uint256 amount) internal{\n        require(_tokenContract.transfer(recipient, amount));\n    }\n    function r () public {\n        _tokenContract.releaseTokenTransfer();\n    }\n\n}",
  "sourcePath": "/Users/mapps/dApps/mula/contracts/MulaTokenCrowdSale.sol",
  "compiler": {
    "name": "solc",
    "version": "0.8.4+commit.c7e474f2.Emscripten.clang"
  },
  "schemaVersion": "3.4.0",
  "updatedAt": "2021-05-19T08:57:38.012Z",
  "networkType": "ethereum",
  "devdoc": {
    "kind": "dev",
    "methods": {
      "owner()": {
        "details": "Returns the address of the current owner."
      },
      "renounceOwnership()": {
        "details": "Leaves the contract without owner. It will not be possible to call `onlyOwner` functions anymore. Can only be called by the current owner. NOTE: Renouncing ownership will leave the contract without an owner, thereby removing any functionality that is only available to the owner."
      },
      "transferOwnership(address)": {
        "details": "Transfers ownership of the contract to a new account (`newOwner`). Can only be called by the current owner."
      }
    },
    "version": 1
  },
  "userdoc": {
    "kind": "user",
    "methods": {},
    "version": 1
  }
}