{
  "contractName": "MulaTokenCrowdSale",
  "abi": [
    {
      "inputs": [
        {
          "internalType": "contract MulaToken",
          "name": "token",
          "type": "address"
        },
        {
          "internalType": "contract MulaInvestorsVault",
          "name": "vault",
          "type": "address"
        },
        {
          "internalType": "uint256",
          "name": "startingTime",
          "type": "uint256"
        },
        {
          "internalType": "uint256",
          "name": "endingTime",
          "type": "uint256"
        },
        {
          "internalType": "address payable",
          "name": "wallet",
          "type": "address"
        },
        {
          "internalType": "address payable",
          "name": "DevMarketing",
          "type": "address"
        },
        {
          "internalType": "address payable",
          "name": "FounderFund1",
          "type": "address"
        },
        {
          "internalType": "address payable",
          "name": "FounderFund2",
          "type": "address"
        },
        {
          "internalType": "address payable",
          "name": "ListingLiquidity",
          "type": "address"
        },
        {
          "internalType": "address payable",
          "name": "OperationsManagement",
          "type": "address"
        }
      ],
      "stateMutability": "nonpayable",
      "type": "constructor"
    },
    {
      "anonymous": false,
      "inputs": [],
      "name": "COF",
      "type": "event"
    },
    {
      "anonymous": false,
      "inputs": [
        {
          "indexed": false,
          "internalType": "uint256",
          "name": "oldEndTime",
          "type": "uint256"
        },
        {
          "indexed": false,
          "internalType": "uint256",
          "name": "newEndTime",
          "type": "uint256"
        }
      ],
      "name": "CPE",
      "type": "event"
    },
    {
      "anonymous": false,
      "inputs": [
        {
          "indexed": true,
          "internalType": "address",
          "name": "previousOwner",
          "type": "address"
        },
        {
          "indexed": true,
          "internalType": "address",
          "name": "newOwner",
          "type": "address"
        }
      ],
      "name": "OwnershipTransferred",
      "type": "event"
    },
    {
      "inputs": [
        {
          "internalType": "enum MulaTokenCrowdSale.CrowdsaleStage",
          "name": "",
          "type": "uint8"
        }
      ],
      "name": "CrowdsaleStageBalance",
      "outputs": [
        {
          "internalType": "uint256",
          "name": "",
          "type": "uint256"
        }
      ],
      "stateMutability": "view",
      "type": "function"
    },
    {
      "inputs": [],
      "name": "_DevMarketingPercentage",
      "outputs": [
        {
          "internalType": "uint256",
          "name": "",
          "type": "uint256"
        }
      ],
      "stateMutability": "view",
      "type": "function"
    },
    {
      "inputs": [],
      "name": "_DevMarketing_ID",
      "outputs": [
        {
          "internalType": "uint256",
          "name": "",
          "type": "uint256"
        }
      ],
      "stateMutability": "view",
      "type": "function"
    },
    {
      "inputs": [],
      "name": "_DevMarketing_ReleaseInterval",
      "outputs": [
        {
          "internalType": "uint256",
          "name": "",
          "type": "uint256"
        }
      ],
      "stateMutability": "view",
      "type": "function"
    },
    {
      "inputs": [],
      "name": "_DevMarketing_TotalDur",
      "outputs": [
        {
          "internalType": "uint256",
          "name": "",
          "type": "uint256"
        }
      ],
      "stateMutability": "view",
      "type": "function"
    },
    {
      "inputs": [],
      "name": "_DevMarketing_percentPerReleaseInterval",
      "outputs": [
        {
          "internalType": "uint256",
          "name": "",
          "type": "uint256"
        }
      ],
      "stateMutability": "view",
      "type": "function"
    },
    {
      "inputs": [],
      "name": "_FounderFund1Percentage",
      "outputs": [
        {
          "internalType": "uint256",
          "name": "",
          "type": "uint256"
        }
      ],
      "stateMutability": "view",
      "type": "function"
    },
    {
      "inputs": [],
      "name": "_FounderFund1_ID",
      "outputs": [
        {
          "internalType": "uint256",
          "name": "",
          "type": "uint256"
        }
      ],
      "stateMutability": "view",
      "type": "function"
    },
    {
      "inputs": [],
      "name": "_FounderFund1_ReleaseInterval",
      "outputs": [
        {
          "internalType": "uint256",
          "name": "",
          "type": "uint256"
        }
      ],
      "stateMutability": "view",
      "type": "function"
    },
    {
      "inputs": [],
      "name": "_FounderFund1_TotalDur",
      "outputs": [
        {
          "internalType": "uint256",
          "name": "",
          "type": "uint256"
        }
      ],
      "stateMutability": "view",
      "type": "function"
    },
    {
      "inputs": [],
      "name": "_FounderFund1_percentPerReleaseInterval",
      "outputs": [
        {
          "internalType": "uint256",
          "name": "",
          "type": "uint256"
        }
      ],
      "stateMutability": "view",
      "type": "function"
    },
    {
      "inputs": [],
      "name": "_FounderFund2Percentage",
      "outputs": [
        {
          "internalType": "uint256",
          "name": "",
          "type": "uint256"
        }
      ],
      "stateMutability": "view",
      "type": "function"
    },
    {
      "inputs": [],
      "name": "_FounderFund2_ID",
      "outputs": [
        {
          "internalType": "uint256",
          "name": "",
          "type": "uint256"
        }
      ],
      "stateMutability": "view",
      "type": "function"
    },
    {
      "inputs": [],
      "name": "_FounderFund2_ReleaseInterval",
      "outputs": [
        {
          "internalType": "uint256",
          "name": "",
          "type": "uint256"
        }
      ],
      "stateMutability": "view",
      "type": "function"
    },
    {
      "inputs": [],
      "name": "_FounderFund2_TotalDur",
      "outputs": [
        {
          "internalType": "uint256",
          "name": "",
          "type": "uint256"
        }
      ],
      "stateMutability": "view",
      "type": "function"
    },
    {
      "inputs": [],
      "name": "_FounderFund2_percentPerReleaseInterval",
      "outputs": [
        {
          "internalType": "uint256",
          "name": "",
          "type": "uint256"
        }
      ],
      "stateMutability": "view",
      "type": "function"
    },
    {
      "inputs": [],
      "name": "_ListingLiquidityPercentage",
      "outputs": [
        {
          "internalType": "uint256",
          "name": "",
          "type": "uint256"
        }
      ],
      "stateMutability": "view",
      "type": "function"
    },
    {
      "inputs": [],
      "name": "_ListingLiquidity_ID",
      "outputs": [
        {
          "internalType": "uint256",
          "name": "",
          "type": "uint256"
        }
      ],
      "stateMutability": "view",
      "type": "function"
    },
    {
      "inputs": [],
      "name": "_ListingLiquidity_ReleaseInterval",
      "outputs": [
        {
          "internalType": "uint256",
          "name": "",
          "type": "uint256"
        }
      ],
      "stateMutability": "view",
      "type": "function"
    },
    {
      "inputs": [],
      "name": "_ListingLiquidity_TotalDur",
      "outputs": [
        {
          "internalType": "uint256",
          "name": "",
          "type": "uint256"
        }
      ],
      "stateMutability": "view",
      "type": "function"
    },
    {
      "inputs": [],
      "name": "_ListingLiquidity_percentPerReleaseInterval",
      "outputs": [
        {
          "internalType": "uint256",
          "name": "",
          "type": "uint256"
        }
      ],
      "stateMutability": "view",
      "type": "function"
    },
    {
      "inputs": [],
      "name": "_OperationsManagementPercentage",
      "outputs": [
        {
          "internalType": "uint256",
          "name": "",
          "type": "uint256"
        }
      ],
      "stateMutability": "view",
      "type": "function"
    },
    {
      "inputs": [],
      "name": "_OperationsManagement_ID",
      "outputs": [
        {
          "internalType": "uint256",
          "name": "",
          "type": "uint256"
        }
      ],
      "stateMutability": "view",
      "type": "function"
    },
    {
      "inputs": [],
      "name": "_OperationsManagement_ReleaseInterval",
      "outputs": [
        {
          "internalType": "uint256",
          "name": "",
          "type": "uint256"
        }
      ],
      "stateMutability": "view",
      "type": "function"
    },
    {
      "inputs": [],
      "name": "_OperationsManagement_TotalDur",
      "outputs": [
        {
          "internalType": "uint256",
          "name": "",
          "type": "uint256"
        }
      ],
      "stateMutability": "view",
      "type": "function"
    },
    {
      "inputs": [],
      "name": "_OperationsManagement_percentPerReleaseInterval",
      "outputs": [
        {
          "internalType": "uint256",
          "name": "",
          "type": "uint256"
        }
      ],
      "stateMutability": "view",
      "type": "function"
    },
    {
      "inputs": [],
      "name": "_rate",
      "outputs": [
        {
          "internalType": "uint256",
          "name": "",
          "type": "uint256"
        }
      ],
      "stateMutability": "view",
      "type": "function"
    },
    {
      "inputs": [],
      "name": "_tokenContract",
      "outputs": [
        {
          "internalType": "contract MulaToken",
          "name": "",
          "type": "address"
        }
      ],
      "stateMutability": "view",
      "type": "function"
    },
    {
      "inputs": [],
      "name": "_tokensSold",
      "outputs": [
        {
          "internalType": "uint256",
          "name": "",
          "type": "uint256"
        }
      ],
      "stateMutability": "view",
      "type": "function"
    },
    {
      "inputs": [],
      "name": "_vaultContract",
      "outputs": [
        {
          "internalType": "contract MulaInvestorsVault",
          "name": "",
          "type": "address"
        }
      ],
      "stateMutability": "view",
      "type": "function"
    },
    {
      "inputs": [],
      "name": "_weiRaised",
      "outputs": [
        {
          "internalType": "uint256",
          "name": "",
          "type": "uint256"
        }
      ],
      "stateMutability": "view",
      "type": "function"
    },
    {
      "inputs": [],
      "name": "investorHardCap",
      "outputs": [
        {
          "internalType": "uint256",
          "name": "",
          "type": "uint256"
        }
      ],
      "stateMutability": "view",
      "type": "function"
    },
    {
      "inputs": [],
      "name": "investorMinCap",
      "outputs": [
        {
          "internalType": "uint256",
          "name": "",
          "type": "uint256"
        }
      ],
      "stateMutability": "view",
      "type": "function"
    },
    {
      "inputs": [],
      "name": "owner",
      "outputs": [
        {
          "internalType": "address",
          "name": "",
          "type": "address"
        }
      ],
      "stateMutability": "view",
      "type": "function"
    },
    {
      "inputs": [],
      "name": "renounceOwnership",
      "outputs": [],
      "stateMutability": "nonpayable",
      "type": "function"
    },
    {
      "inputs": [],
      "name": "stage",
      "outputs": [
        {
          "internalType": "enum MulaTokenCrowdSale.CrowdsaleStage",
          "name": "",
          "type": "uint8"
        }
      ],
      "stateMutability": "view",
      "type": "function"
    },
    {
      "inputs": [
        {
          "internalType": "address",
          "name": "newOwner",
          "type": "address"
        }
      ],
      "name": "transferOwnership",
      "outputs": [],
      "stateMutability": "nonpayable",
      "type": "function"
    },
    {
      "inputs": [
        {
          "internalType": "uint80",
          "name": "_roundId",
          "type": "uint80"
        }
      ],
      "name": "participatEth",
      "outputs": [
        {
          "internalType": "bool",
          "name": "success",
          "type": "bool"
        }
      ],
      "stateMutability": "payable",
      "type": "function"
    },
    {
      "inputs": [
        {
          "internalType": "uint256",
          "name": "_stage",
          "type": "uint256"
        }
      ],
      "name": "updateStage",
      "outputs": [
        {
          "internalType": "bool",
          "name": "success",
          "type": "bool"
        }
      ],
      "stateMutability": "nonpayable",
      "type": "function"
    },
    {
      "inputs": [],
      "name": "getStageBalance",
      "outputs": [
        {
          "internalType": "uint256",
          "name": "",
          "type": "uint256"
        }
      ],
      "stateMutability": "view",
      "type": "function"
    },
    {
      "inputs": [
        {
          "internalType": "address",
          "name": "_participant",
          "type": "address"
        }
      ],
      "name": "getParticipantGivings",
      "outputs": [
        {
          "internalType": "uint256",
          "name": "",
          "type": "uint256"
        }
      ],
      "stateMutability": "view",
      "type": "function"
    },
    {
      "inputs": [
        {
          "internalType": "address",
          "name": "_participant",
          "type": "address"
        }
      ],
      "name": "getParticipantReceivings",
      "outputs": [
        {
          "internalType": "uint256",
          "name": "",
          "type": "uint256"
        }
      ],
      "stateMutability": "view",
      "type": "function"
    },
    {
      "inputs": [],
      "name": "r",
      "outputs": [],
      "stateMutability": "nonpayable",
      "type": "function"
    },
    {
      "inputs": [],
      "name": "startTime",
      "outputs": [
        {
          "internalType": "uint256",
          "name": "",
          "type": "uint256"
        }
      ],
      "stateMutability": "view",
      "type": "function"
    },
    {
      "inputs": [],
      "name": "endTime",
      "outputs": [
        {
          "internalType": "uint256",
          "name": "",
          "type": "uint256"
        }
      ],
      "stateMutability": "view",
      "type": "function"
    },
    {
      "inputs": [],
      "name": "isOpen",
      "outputs": [
        {
          "internalType": "bool",
          "name": "",
          "type": "bool"
        }
      ],
      "stateMutability": "view",
      "type": "function"
    },
    {
      "inputs": [],
      "name": "hasClosed",
      "outputs": [
        {
          "internalType": "bool",
          "name": "",
          "type": "bool"
        }
      ],
      "stateMutability": "view",
      "type": "function"
    },
    {
      "inputs": [
        {
          "internalType": "uint256",
          "name": "newEndTime",
          "type": "uint256"
        }
      ],
      "name": "_extendTime",
      "outputs": [],
      "stateMutability": "nonpayable",
      "type": "function"
    },
    {
      "inputs": [],
      "name": "getSoftCap",
      "outputs": [
        {
          "internalType": "uint256",
          "name": "",
          "type": "uint256"
        }
      ],
      "stateMutability": "view",
      "type": "function"
    },
    {
      "inputs": [],
      "name": "getHardCap",
      "outputs": [
        {
          "internalType": "uint256",
          "name": "",
          "type": "uint256"
        }
      ],
      "stateMutability": "view",
      "type": "function"
    },
    {
      "inputs": [],
      "name": "isFinalized",
      "outputs": [
        {
          "internalType": "bool",
          "name": "",
          "type": "bool"
        }
      ],
      "stateMutability": "view",
      "type": "function"
    },
    {
      "inputs": [],
      "name": "finalize",
      "outputs": [],
      "stateMutability": "nonpayable",
      "type": "function"
    }
  ],
  "bytecode": "0x60806040526004600b60016101000a81548160ff021916908360058111156200002d576200002c62000e70565b5b021790555063017d7840600e55624c4b40600f55738a753747a1fa494ec906ce90e9f37563a8af630e601660006101000a81548173ffffffffffffffffffffffffffffffffffffffff021916908373ffffffffffffffffffffffffffffffffffffffff16021790555073cf0f51ca2cdaecb464eee4227f5295f2384f84ed601760006101000a81548173ffffffffffffffffffffffffffffffffffffffff021916908373ffffffffffffffffffffffffffffffffffffffff1602179055506008601d556009601e556009601f5560146020556004602155600560225560146023556014602455600a60255560646026556001602755600360285560036029556001602a556001602b556014602c55600f602d55600f602e55600a602f556001603055612310603155611de66032556105e56033556119d1603455611de66035553480156200017a57600080fd5b5060405162004352380380620043528339818101604052810190620001a0919062000c14565b6000620001b26200063660201b60201c565b9050806000806101000a81548173ffffffffffffffffffffffffffffffffffffffff021916908373ffffffffffffffffffffffffffffffffffffffff1602179055508073ffffffffffffffffffffffffffffffffffffffff16600073ffffffffffffffffffffffffffffffffffffffff167f8be0079c531659141344cd1fd0a4f28419497f9722a3daafe3b4186f6b6457e060405160405180910390a3504288101562000296576040517f08c379a00000000000000000000000000000000000000000000000000000000081526004016200028d9062000d7f565b60405180910390fd5b878711620002db576040517f08c379a0000000000000000000000000000000000000000000000000000000008152600401620002d29062000da1565b60405180910390fd5b33600160006101000a81548173ffffffffffffffffffffffffffffffffffffffff021916908373ffffffffffffffffffffffffffffffffffffffff16021790555089600260006101000a81548173ffffffffffffffffffffffffffffffffffffffff021916908373ffffffffffffffffffffffffffffffffffffffff16021790555088600360006101000a81548173ffffffffffffffffffffffffffffffffffffffff021916908373ffffffffffffffffffffffffffffffffffffffff16021790555085600860006101000a81548173ffffffffffffffffffffffffffffffffffffffff021916908373ffffffffffffffffffffffffffffffffffffffff160217905550620003f160046200063e60201b60201c565b50601660009054906101000a900473ffffffffffffffffffffffffffffffffffffffff16601460006101000a81548173ffffffffffffffffffffffffffffffffffffffff021916908373ffffffffffffffffffffffffffffffffffffffff160217905550601760009054906101000a900473ffffffffffffffffffffffffffffffffffffffff16601560006101000a81548173ffffffffffffffffffffffffffffffffffffffff021916908373ffffffffffffffffffffffffffffffffffffffff1602179055508760098190555086600a819055506000600b60006101000a81548160ff02191690831515021790555084601860006101000a81548173ffffffffffffffffffffffffffffffffffffffff021916908373ffffffffffffffffffffffffffffffffffffffff16021790555083601960006101000a81548173ffffffffffffffffffffffffffffffffffffffff021916908373ffffffffffffffffffffffffffffffffffffffff16021790555082601a60006101000a81548173ffffffffffffffffffffffffffffffffffffffff021916908373ffffffffffffffffffffffffffffffffffffffff16021790555081601b60006101000a81548173ffffffffffffffffffffffffffffffffffffffff021916908373ffffffffffffffffffffffffffffffffffffffff16021790555080601c60006101000a81548173ffffffffffffffffffffffffffffffffffffffff021916908373ffffffffffffffffffffffffffffffffffffffff1602179055505050505050505050505062000fad565b600033905090565b6000620006506200063660201b60201c565b73ffffffffffffffffffffffffffffffffffffffff166200067662000b8f60201b60201c565b73ffffffffffffffffffffffffffffffffffffffff1614620006cf576040517f08c379a0000000000000000000000000000000000000000000000000000000008152600401620006c69062000dc3565b60405180910390fd5b8160006005811115620006e757620006e662000e70565b5b1415620007a6576000600b60016101000a81548160ff0219169083600581111562000717576200071662000e70565b5b02179055506a0771d2fa45345aa900000060126000600b60019054906101000a900460ff16600581111562000751576200075062000e70565b5b600581111562000766576200076562000e70565b5b81526020019081526020016000208190555067016345785d8a0000600c819055506714d1120d7b160000600d81905550620e7ef060048190555062000b86565b8160016005811115620007be57620007bd62000e70565b5b14156200087d576001600b60016101000a81548160ff02191690836005811115620007ee57620007ed62000e70565b5b02179055506a094e47b8d681715340000060126000600b60019054906101000a900460ff16600581111562000828576200082762000e70565b5b60058111156200083d576200083c62000e70565b5b8152602001908152602001600020819055506702c68af0bb140000600c81905550678ac7230489e80000600d81905550622625a060048190555062000b85565b816002600581111562000895576200089462000e70565b5b141562000955576001600b60016101000a81548160ff02191690836005811115620008c557620008c462000e70565b5b02179055506a0b2abc7767ce87fd80000060126000600b60019054906101000a900460ff166005811115620008ff57620008fe62000e70565b5b600581111562000914576200091362000e70565b5b8152602001908152602001600020819055506703782dace9d90000600c8190555068015af1d78b58c40000600d819055506244aa2060048190555062000b84565b81600360058111156200096d576200096c62000e70565b5b141562000a2d576003600b60016101000a81548160ff021916908360058111156200099d576200099c62000e70565b5b02179055506a094e47b8d681715340000060126000600b60019054906101000a900460ff166005811115620009d757620009d662000e70565b5b6005811115620009ec57620009eb62000e70565b5b8152602001908152602001600020819055506706f05b59d3b20000600c819055506802b5e3af16b1880000600d8190555062632ea060048190555062000b83565b816004600581111562000a455762000a4462000e70565b5b141562000ada576004600b60016101000a81548160ff0219169083600581111562000a755762000a7462000e70565b5b0217905550600060126000600b60019054906101000a900460ff16600581111562000aa55762000aa462000e70565b5b600581111562000aba5762000ab962000e70565b5b815260200190815260200160002081905550600060048190555062000b82565b8160058081111562000af15762000af062000e70565b5b141562000b81576005600b60016101000a81548160ff0219169083600581111562000b215762000b2062000e70565b5b0217905550600060126000600b60019054906101000a900460ff16600581111562000b515762000b5062000e70565b5b600581111562000b665762000b6562000e70565b5b81526020019081526020016000208190555060006004819055505b5b5b5b5b5b60019050919050565b60008060009054906101000a900473ffffffffffffffffffffffffffffffffffffffff16905090565b60008151905062000bc98162000f45565b92915050565b60008151905062000be08162000f5f565b92915050565b60008151905062000bf78162000f79565b92915050565b60008151905062000c0e8162000f93565b92915050565b6000806000806000806000806000806101408b8d03121562000c3b5762000c3a62000e9f565b5b600062000c4b8d828e0162000be6565b9a5050602062000c5e8d828e0162000bcf565b995050604062000c718d828e0162000bfd565b985050606062000c848d828e0162000bfd565b975050608062000c978d828e0162000bb8565b96505060a062000caa8d828e0162000bb8565b95505060c062000cbd8d828e0162000bb8565b94505060e062000cd08d828e0162000bb8565b93505061010062000ce48d828e0162000bb8565b92505061012062000cf88d828e0162000bb8565b9150509295989b9194979a5092959850565b600062000d19602c8362000de5565b915062000d268262000ea4565b604082019050919050565b600062000d4060208362000de5565b915062000d4d8262000ef3565b602082019050919050565b600062000d6760208362000de5565b915062000d748262000f1c565b602082019050919050565b6000602082019050818103600083015262000d9a8162000d0a565b9050919050565b6000602082019050818103600083015262000dbc8162000d31565b9050919050565b6000602082019050818103600083015262000dde8162000d58565b9050919050565b600082825260208201905092915050565b600062000e038262000e46565b9050919050565b600062000e178262000e46565b9050919050565b600062000e2b8262000df6565b9050919050565b600062000e3f8262000df6565b9050919050565b600073ffffffffffffffffffffffffffffffffffffffff82169050919050565b6000819050919050565b7f4e487b7100000000000000000000000000000000000000000000000000000000600052602160045260246000fd5b600080fd5b7f43726f776473616c653a2073746172742074696d65206973206265666f72652060008201527f63757272656e742074696d650000000000000000000000000000000000000000602082015250565b7f43726f776473616c653a2073746172742074696d6520697320696e76616c6964600082015250565b7f4f776e61626c653a2063616c6c6572206973206e6f7420746865206f776e6572600082015250565b62000f508162000e0a565b811462000f5c57600080fd5b50565b62000f6a8162000e1e565b811462000f7657600080fd5b50565b62000f848162000e32565b811462000f9057600080fd5b50565b62000f9e8162000e66565b811462000faa57600080fd5b50565b6133958062000fbd6000396000f3fe6080604052600436106102ff5760003560e01c806378e9792511610190578063b7d2e9db116100dc578063c040e6b811610095578063d8fe89531161006f578063d8fe895314610b11578063ec2895da14610b4e578063ed5db87414610b79578063f2fde38b14610ba4576102ff565b8063c040e6b814610a7e578063c85bd44914610aa9578063d5358e0514610ae6576102ff565b8063b7d2e9db1461096a578063b91abe6b14610995578063b9d5dc65146109c0578063bc634882146109eb578063bf0a07bd14610a16578063bf20dfa314610a41576102ff565b806394a5aa8d11610149578063a3d11a3011610123578063a3d11a30146108ac578063a824d056146108d7578063b25d7f5414610902578063b4f704df1461092d576102ff565b806394a5aa8d1461082b5780639e369f8814610856578063a2908dcd14610881576102ff565b806378e97925146107295780637cf27c051461075457806383bebced1461077f5780638717c8ff146107aa5780638d4e4083146107d55780638da5cb5b14610800576102ff565b80634d52a5121161024f5780635da6320e11610208578063665035d5116101e2578063665035d5146106a55780636c8ae38c146106d05780636ec16978146106e7578063715018a614610712576102ff565b80635da6320e146106245780636026e2771461064f57806364dac11e1461067a576102ff565b80634d52a512146105225780634ece9db31461054d57806352886e33146105785780635424d8de146105a35780635b10946f146105ce5780635d54b351146105f9576102ff565b80633197cbb6116102bc57806347535d7b1161029657806347535d7b1461048757806347f291aa146104b25780634a0ecf0d146104db5780634bb278f31461050b576102ff565b80633197cbb61461040657806333414d2a146104315780633d4763191461045c576102ff565b80630a389994146103045780631515bc2b1461032f578063181743e21461035a57806324d1a836146103855780632b31c484146103b05780632f32c9a2146103db575b600080fd5b34801561031057600080fd5b50610319610bcd565b6040516103269190612a52565b60405180910390f35b34801561033b57600080fd5b50610344610bf3565b6040516103519190612a37565b60405180910390f35b34801561036657600080fd5b5061036f610bff565b60405161037c9190612c03565b60405180910390f35b34801561039157600080fd5b5061039a610c05565b6040516103a79190612c03565b60405180910390f35b3480156103bc57600080fd5b506103c5610c0b565b6040516103d29190612c03565b60405180910390f35b3480156103e757600080fd5b506103f0610c11565b6040516103fd9190612c03565b60405180910390f35b34801561041257600080fd5b5061041b610c17565b6040516104289190612c03565b60405180910390f35b34801561043d57600080fd5b50610446610c21565b6040516104539190612c03565b60405180910390f35b34801561046857600080fd5b50610471610c27565b60405161047e9190612c03565b60405180910390f35b34801561049357600080fd5b5061049c610c2d565b6040516104a99190612a37565b60405180910390f35b3480156104be57600080fd5b506104d960048036038101906104d491906126c2565b610d3f565b005b6104f560048036038101906104f0919061271c565b610e8c565b6040516105029190612a37565b60405180910390f35b34801561051757600080fd5b50610520610f48565b005b34801561052e57600080fd5b506105376112a7565b6040516105449190612c03565b60405180910390f35b34801561055957600080fd5b506105626112b1565b60405161056f9190612c03565b60405180910390f35b34801561058457600080fd5b5061058d6112b7565b60405161059a9190612c03565b60405180910390f35b3480156105af57600080fd5b506105b86112bd565b6040516105c59190612c03565b60405180910390f35b3480156105da57600080fd5b506105e36112c3565b6040516105f09190612c03565b60405180910390f35b34801561060557600080fd5b5061060e6112c9565b60405161061b9190612c03565b60405180910390f35b34801561063057600080fd5b506106396112cf565b6040516106469190612c03565b60405180910390f35b34801561065b57600080fd5b506106646112d5565b6040516106719190612a6d565b60405180910390f35b34801561068657600080fd5b5061068f6112fb565b60405161069c9190612c03565b60405180910390f35b3480156106b157600080fd5b506106ba611301565b6040516106c79190612c03565b60405180910390f35b3480156106dc57600080fd5b506106e5611307565b005b3480156106f357600080fd5b506106fc61138b565b6040516107099190612c03565b60405180910390f35b34801561071e57600080fd5b50610727611391565b005b34801561073557600080fd5b5061073e6114cb565b60405161074b9190612c03565b60405180910390f35b34801561076057600080fd5b506107696114d5565b6040516107769190612c03565b60405180910390f35b34801561078b57600080fd5b50610794611523565b6040516107a19190612c03565b60405180910390f35b3480156107b657600080fd5b506107bf611529565b6040516107cc9190612c03565b60405180910390f35b3480156107e157600080fd5b506107ea61152f565b6040516107f79190612a37565b60405180910390f35b34801561080c57600080fd5b50610815611546565b60405161082291906129ae565b60405180910390f35b34801561083757600080fd5b5061084061156f565b60405161084d9190612c03565b60405180910390f35b34801561086257600080fd5b5061086b611575565b6040516108789190612c03565b60405180910390f35b34801561088d57600080fd5b5061089661157b565b6040516108a39190612c03565b60405180910390f35b3480156108b857600080fd5b506108c1611581565b6040516108ce9190612c03565b60405180910390f35b3480156108e357600080fd5b506108ec611587565b6040516108f99190612c03565b60405180910390f35b34801561090e57600080fd5b5061091761158d565b6040516109249190612c03565b60405180910390f35b34801561093957600080fd5b50610954600480360381019061094f91906126c2565b611593565b6040516109619190612a37565b60405180910390f35b34801561097657600080fd5b5061097f611a7e565b60405161098c9190612c03565b60405180910390f35b3480156109a157600080fd5b506109aa611a84565b6040516109b79190612c03565b60405180910390f35b3480156109cc57600080fd5b506109d5611a8a565b6040516109e29190612c03565b60405180910390f35b3480156109f757600080fd5b50610a00611a90565b604051610a0d9190612c03565b60405180910390f35b348015610a2257600080fd5b50610a2b611a96565b604051610a389190612c03565b60405180910390f35b348015610a4d57600080fd5b50610a686004803603810190610a639190612695565b611aa0565b604051610a759190612c03565b60405180910390f35b348015610a8a57600080fd5b50610a93611ab8565b604051610aa09190612a88565b60405180910390f35b348015610ab557600080fd5b50610ad06004803603810190610acb919061263b565b611acb565b604051610add9190612c03565b60405180910390f35b348015610af257600080fd5b50610afb611b58565b604051610b089190612c03565b60405180910390f35b348015610b1d57600080fd5b50610b386004803603810190610b33919061263b565b611b5e565b604051610b459190612c03565b60405180910390f35b348015610b5a57600080fd5b50610b63611beb565b604051610b709190612c03565b60405180910390f35b348015610b8557600080fd5b50610b8e611bf1565b604051610b9b9190612c03565b60405180910390f35b348015610bb057600080fd5b50610bcb6004803603810190610bc6919061263b565b611bf7565b005b600360009054906101000a900473ffffffffffffffffffffffffffffffffffffffff1681565b6000600a544211905090565b60225481565b60305481565b602e5481565b60295481565b6000600a54905090565b60325481565b60285481565b60006009544210158015610c435750600a544211155b610c82576040517f08c379a0000000000000000000000000000000000000000000000000000000008152600401610c7990612ac3565b60405180910390fd5b60046005811115610c9657610c95613085565b5b600b60019054906101000a900460ff166005811115610cb857610cb7613085565b5b14158015610cf95750600580811115610cd457610cd3613085565b5b600b60019054906101000a900460ff166005811115610cf657610cf5613085565b5b14155b610d38576040517f08c379a0000000000000000000000000000000000000000000000000000000008152600401610d2f90612ac3565b60405180910390fd5b6001905090565b610d47611da0565b73ffffffffffffffffffffffffffffffffffffffff16610d65611546565b73ffffffffffffffffffffffffffffffffffffffff1614610dbb576040517f08c379a0000000000000000000000000000000000000000000000000000000008152600401610db290612b23565b60405180910390fd5b610dc3610bf3565b15610e03576040517f08c379a0000000000000000000000000000000000000000000000000000000008152600401610dfa90612be3565b60405180910390fd5b600a548111610e47576040517f08c379a0000000000000000000000000000000000000000000000000000000008152600401610e3e90612b03565b60405180910390fd5b7ff0b2de6051b5da571d79c174e7a4661be3574e60004243968a3edb78045cb912600a5482604051610e7a929190612c1e565b60405180910390a180600a8190555050565b6000610e96610c2d565b610ed5576040517f08c379a0000000000000000000000000000000000000000000000000000000008152600401610ecc90612bc3565b60405180910390fd5b6000610ee13484611da8565b9050610eee348233611e35565b610ef83382611f70565b610f0333348361203d565b8060056000828254610f159190612c73565b925050819055503460066000828254610f2e9190612c73565b92505081905550610f3e8161219e565b6001915050919050565b610f50611da0565b73ffffffffffffffffffffffffffffffffffffffff16610f6e611546565b73ffffffffffffffffffffffffffffffffffffffff1614610fc4576040517f08c379a0000000000000000000000000000000000000000000000000000000008152600401610fbb90612b23565b60405180910390fd5b600b60009054906101000a900460ff1615611014576040517f08c379a000000000000000000000000000000000000000000000000000000000815260040161100b90612ae3565b60405180910390fd5b61101c610bf3565b61105b576040517f08c379a000000000000000000000000000000000000000000000000000000000815260040161105290612b63565b60405180910390fd5b60006305f5e10090506001600b60006101000a81548160ff02191690831515021790555060006127106064601d546110939190612e7b565b8361109e9190612e7b565b6110a89190612d33565b90506110e2601860009054906101000a900473ffffffffffffffffffffffffffffffffffffffff1682602c54602754602254603154612211565b5060006127106064601e546110f79190612e7b565b846111029190612e7b565b61110c9190612d33565b9050611146601960009054906101000a900473ffffffffffffffffffffffffffffffffffffffff1682602d54602854602354603254612211565b5060006127106064601f5461115b9190612e7b565b856111669190612e7b565b6111709190612d33565b90506111aa601960009054906101000a900473ffffffffffffffffffffffffffffffffffffffff1682602e54602954602454603354612211565b50600061271060646020546111bf9190612e7b565b866111ca9190612e7b565b6111d49190612d33565b905061120e601b60009054906101000a900473ffffffffffffffffffffffffffffffffffffffff1682602f54602a54602554603454612211565b50600061271060646021546112239190612e7b565b8761122e9190612e7b565b6112389190612d33565b9050611272601c60009054906101000a900473ffffffffffffffffffffffffffffffffffffffff1682603054602b54602654603554612211565b507f479f3d74dd5758e4bcb170c7b3c3127698d8c60e2800a8da1255f4d6fa09738260405160405180910390a1505050505050565b6000600f54905090565b60335481565b602d5481565b60255481565b60355481565b60215481565b601d5481565b600260009054906101000a900473ffffffffffffffffffffffffffffffffffffffff1681565b601f5481565b601e5481565b600260009054906101000a900473ffffffffffffffffffffffffffffffffffffffff1673ffffffffffffffffffffffffffffffffffffffff16635f412d4f6040518163ffffffff1660e01b8152600401600060405180830381600087803b15801561137157600080fd5b505af1158015611385573d6000803e3d6000fd5b50505050565b60345481565b611399611da0565b73ffffffffffffffffffffffffffffffffffffffff166113b7611546565b73ffffffffffffffffffffffffffffffffffffffff161461140d576040517f08c379a000000000000000000000000000000000000000000000000000000000815260040161140490612b23565b60405180910390fd5b600073ffffffffffffffffffffffffffffffffffffffff1660008054906101000a900473ffffffffffffffffffffffffffffffffffffffff1673ffffffffffffffffffffffffffffffffffffffff167f8be0079c531659141344cd1fd0a4f28419497f9722a3daafe3b4186f6b6457e060405160405180910390a360008060006101000a81548173ffffffffffffffffffffffffffffffffffffffff021916908373ffffffffffffffffffffffffffffffffffffffff160217905550565b6000600954905090565b600060126000600b60019054906101000a900460ff1660058111156114fd576114fc613085565b5b600581111561150f5761150e613085565b5b815260200190815260200160002054905090565b60045481565b602f5481565b6000600b60009054906101000a900460ff16905090565b60008060009054906101000a900473ffffffffffffffffffffffffffffffffffffffff16905090565b60065481565b602c5481565b60245481565b60205481565b60055481565b600c5481565b600061159d611da0565b73ffffffffffffffffffffffffffffffffffffffff166115bb611546565b73ffffffffffffffffffffffffffffffffffffffff1614611611576040517f08c379a000000000000000000000000000000000000000000000000000000000815260040161160890612b23565b60405180910390fd5b816000600581111561162657611625613085565b5b14156116da576000600b60016101000a81548160ff0219169083600581111561165257611651613085565b5b02179055506a0771d2fa45345aa900000060126000600b60019054906101000a900460ff16600581111561168957611688613085565b5b600581111561169b5761169a613085565b5b81526020019081526020016000208190555067016345785d8a0000600c819055506714d1120d7b160000600d81905550620e7ef0600481905550611a75565b81600160058111156116ef576116ee613085565b5b14156117a3576001600b60016101000a81548160ff0219169083600581111561171b5761171a613085565b5b02179055506a094e47b8d681715340000060126000600b60019054906101000a900460ff16600581111561175257611751613085565b5b600581111561176457611763613085565b5b8152602001908152602001600020819055506702c68af0bb140000600c81905550678ac7230489e80000600d81905550622625a0600481905550611a74565b81600260058111156117b8576117b7613085565b5b141561186d576001600b60016101000a81548160ff021916908360058111156117e4576117e3613085565b5b02179055506a0b2abc7767ce87fd80000060126000600b60019054906101000a900460ff16600581111561181b5761181a613085565b5b600581111561182d5761182c613085565b5b8152602001908152602001600020819055506703782dace9d90000600c8190555068015af1d78b58c40000600d819055506244aa20600481905550611a73565b816003600581111561188257611881613085565b5b1415611937576003600b60016101000a81548160ff021916908360058111156118ae576118ad613085565b5b02179055506a094e47b8d681715340000060126000600b60019054906101000a900460ff1660058111156118e5576118e4613085565b5b60058111156118f7576118f6613085565b5b8152602001908152602001600020819055506706f05b59d3b20000600c819055506802b5e3af16b1880000600d8190555062632ea0600481905550611a72565b816004600581111561194c5761194b613085565b5b14156119d6576004600b60016101000a81548160ff0219169083600581111561197857611977613085565b5b0217905550600060126000600b60019054906101000a900460ff1660058111156119a5576119a4613085565b5b60058111156119b7576119b6613085565b5b8152602001908152602001600020819055506000600481905550611a71565b816005808111156119ea576119e9613085565b5b1415611a70576005600b60016101000a81548160ff02191690836005811115611a1657611a15613085565b5b0217905550600060126000600b60019054906101000a900460ff166005811115611a4357611a42613085565b5b6005811115611a5557611a54613085565b5b81526020019081526020016000208190555060006004819055505b5b5b5b5b5b60019050919050565b602a5481565b602b5481565b60315481565b60275481565b6000600e54905090565b60126020528060005260406000206000915090505481565b600b60019054906101000a900460ff1681565b600060116000600b60019054906101000a900460ff166005811115611af357611af2613085565b5b6005811115611b0557611b04613085565b5b815260200190815260200160002060008373ffffffffffffffffffffffffffffffffffffffff1673ffffffffffffffffffffffffffffffffffffffff168152602001908152602001600020549050919050565b60265481565b600060106000600b60019054906101000a900460ff166005811115611b8657611b85613085565b5b6005811115611b9857611b97613085565b5b815260200190815260200160002060008373ffffffffffffffffffffffffffffffffffffffff1673ffffffffffffffffffffffffffffffffffffffff168152602001908152602001600020549050919050565b60235481565b600d5481565b611bff611da0565b73ffffffffffffffffffffffffffffffffffffffff16611c1d611546565b73ffffffffffffffffffffffffffffffffffffffff1614611c73576040517f08c379a0000000000000000000000000000000000000000000000000000000008152600401611c6a90612b23565b60405180910390fd5b600073ffffffffffffffffffffffffffffffffffffffff168173ffffffffffffffffffffffffffffffffffffffff161415611ce3576040517f08c379a0000000000000000000000000000000000000000000000000000000008152600401611cda90612aa3565b60405180910390fd5b8073ffffffffffffffffffffffffffffffffffffffff1660008054906101000a900473ffffffffffffffffffffffffffffffffffffffff1673ffffffffffffffffffffffffffffffffffffffff167f8be0079c531659141344cd1fd0a4f28419497f9722a3daafe3b4186f6b6457e060405160405180910390a3806000806101000a81548173ffffffffffffffffffffffffffffffffffffffff021916908373ffffffffffffffffffffffffffffffffffffffff16021790555050565b600033905090565b600080611db483612368565b905060006305f5e10082611dc89190612cc9565b600454611dd59190612cc9565b905060006305f5e100670de0b6b3a764000083611df29190612d64565b611dfc9190612cc9565b90506000611e13828861249190919063ffffffff16565b9050670de0b6b3a764000081611e299190612e7b565b94505050505092915050565b81600260009054906101000a900473ffffffffffffffffffffffffffffffffffffffff1673ffffffffffffffffffffffffffffffffffffffff166370a08231306040518263ffffffff1660e01b8152600401611e9191906129ae565b60206040518083038186803b158015611ea957600080fd5b505afa158015611ebd573d6000803e3d6000fd5b505050506040513d601f19601f82011682018060405250810190611ee191906126ef565b1015611f22576040517f08c379a0000000000000000000000000000000000000000000000000000000008152600401611f1990612ba3565b60405180910390fd5b611f2c81846124a7565b611f6b576040517f08c379a0000000000000000000000000000000000000000000000000000000008152600401611f6290612b83565b60405180910390fd5b505050565b611f786124f5565b611f8157600080fd5b600260009054906101000a900473ffffffffffffffffffffffffffffffffffffffff1673ffffffffffffffffffffffffffffffffffffffff1663a9059cbb83836040518363ffffffff1660e01b8152600401611fde9291906129c9565b602060405180830381600087803b158015611ff857600080fd5b505af115801561200c573d6000803e3d6000fd5b505050506040513d601f19601f820116820180604052508101906120309190612668565b61203957600080fd5b5050565b600061204884611b5e565b9050600061205585611acb565b9050600061206c858461256790919063ffffffff16565b90506000612083858461256790919063ffffffff16565b90508160106000600b60019054906101000a900460ff1660058111156120ac576120ab613085565b5b60058111156120be576120bd613085565b5b815260200190815260200160002060008973ffffffffffffffffffffffffffffffffffffffff1673ffffffffffffffffffffffffffffffffffffffff168152602001908152602001600020819055508060116000600b60019054906101000a900460ff16600581111561213457612133613085565b5b600581111561214657612145613085565b5b815260200190815260200160002060008973ffffffffffffffffffffffffffffffffffffffff1673ffffffffffffffffffffffffffffffffffffffff1681526020019081526020016000208190555050505050505050565b60006121a86114d5565b905060006121bf838361257d90919063ffffffff16565b90508060126000600b60019054906101000a900460ff1660058111156121e8576121e7613085565b5b60058111156121fa576121f9613085565b5b815260200190815260200160002081905550505050565b6000806000808890506000889050600088905060008890506127106064826122399190612e7b565b856122449190612e7b565b61224e9190612d33565b95506127106064826122609190612e7b565b8561226b9190612e7b565b6122759190612d33565b95505b82821161235457620151808261228e9190612e7b565b426122999190612c73565b9450600360009054906101000a900473ffffffffffffffffffffffffffffffffffffffff1673ffffffffffffffffffffffffffffffffffffffff16630991642b8e670de0b6b3a7640000896122ee9190612e7b565b888c6040518563ffffffff1660e01b815260040161230f94939291906129f2565b600060405180830381600087803b15801561232957600080fd5b505af115801561233d573d6000803e3d6000fd5b50505050818061234c90612fde565b925050612278565b600196505050505050509695505050505050565b600080600080600080601460009054906101000a900473ffffffffffffffffffffffffffffffffffffffff1673ffffffffffffffffffffffffffffffffffffffff16639a6fc8f5886040518263ffffffff1660e01b81526004016123cc9190612c47565b60a06040518083038186803b1580156123e457600080fd5b505afa1580156123f8573d6000803e3d6000fd5b505050506040513d601f19601f8201168201806040525081019061241c9190612749565b9450945094509450945060008211612469576040517f08c379a000000000000000000000000000000000000000000000000000000000815260040161246090612b43565b60405180910390fd5b62015180826124789190612c73565b42111561248457600080fd5b8395505050505050919050565b6000818361249f9190612d33565b905092915050565b6000806124b384611b5e565b905060006124ca848361256790919063ffffffff16565b9050600c5481101580156124e05750600d548111155b6124e957600080fd5b60019250505092915050565b6000600860009054906101000a900473ffffffffffffffffffffffffffffffffffffffff1673ffffffffffffffffffffffffffffffffffffffff166108fc349081150290604051600060405180830381858888f1935050505015801561255f573d6000803e3d6000fd5b506001905090565b600081836125759190612c73565b905092915050565b6000818361258b9190612ed5565b905092915050565b6000813590506125a2816132dc565b92915050565b6000815190506125b7816132f3565b92915050565b6000813590506125cc8161330a565b92915050565b6000815190506125e18161331a565b92915050565b6000813590506125f681613331565b92915050565b60008151905061260b81613331565b92915050565b60008135905061262081613348565b92915050565b60008151905061263581613348565b92915050565b600060208284031215612651576126506130b4565b5b600061265f84828501612593565b91505092915050565b60006020828403121561267e5761267d6130b4565b5b600061268c848285016125a8565b91505092915050565b6000602082840312156126ab576126aa6130b4565b5b60006126b9848285016125bd565b91505092915050565b6000602082840312156126d8576126d76130b4565b5b60006126e6848285016125e7565b91505092915050565b600060208284031215612705576127046130b4565b5b6000612713848285016125fc565b91505092915050565b600060208284031215612732576127316130b4565b5b600061274084828501612611565b91505092915050565b600080600080600060a08688031215612765576127646130b4565b5b600061277388828901612626565b9550506020612784888289016125d2565b9450506040612795888289016125fc565b93505060606127a6888289016125fc565b92505060806127b788828901612626565b9150509295509295909350565b6127cd81612f09565b82525050565b6127dc81612f1b565b82525050565b6127eb81612f84565b82525050565b6127fa81612fa8565b82525050565b61280981612fcc565b82525050565b600061281c602683612c62565b9150612827826130b9565b604082019050919050565b600061283f601583612c62565b915061284a82613108565b602082019050919050565b6000612862601c83612c62565b915061286d82613131565b602082019050919050565b6000612885603483612c62565b91506128908261315a565b604082019050919050565b60006128a8602083612c62565b91506128b3826131a9565b602082019050919050565b60006128cb601283612c62565b91506128d6826131d2565b602082019050919050565b60006128ee601883612c62565b91506128f9826131fb565b602082019050919050565b6000612911602083612c62565b915061291c82613224565b602082019050919050565b6000612934601d83612c62565b915061293f8261324d565b602082019050919050565b6000612957601383612c62565b915061296282613276565b602082019050919050565b600061297a601883612c62565b91506129858261329f565b602082019050919050565b61299981612f64565b82525050565b6129a881612f6e565b82525050565b60006020820190506129c360008301846127c4565b92915050565b60006040820190506129de60008301856127c4565b6129eb6020830184612990565b9392505050565b6000608082019050612a0760008301876127c4565b612a146020830186612990565b612a216040830185612990565b612a2e6060830184612990565b95945050505050565b6000602082019050612a4c60008301846127d3565b92915050565b6000602082019050612a6760008301846127e2565b92915050565b6000602082019050612a8260008301846127f1565b92915050565b6000602082019050612a9d6000830184612800565b92915050565b60006020820190508181036000830152612abc8161280f565b9050919050565b60006020820190508181036000830152612adc81612832565b9050919050565b60006020820190508181036000830152612afc81612855565b9050919050565b60006020820190508181036000830152612b1c81612878565b9050919050565b60006020820190508181036000830152612b3c8161289b565b9050919050565b60006020820190508181036000830152612b5c816128be565b9050919050565b60006020820190508181036000830152612b7c816128e1565b9050919050565b60006020820190508181036000830152612b9c81612904565b9050919050565b60006020820190508181036000830152612bbc81612927565b9050919050565b60006020820190508181036000830152612bdc8161294a565b9050919050565b60006020820190508181036000830152612bfc8161296d565b9050919050565b6000602082019050612c186000830184612990565b92915050565b6000604082019050612c336000830185612990565b612c406020830184612990565b9392505050565b6000602082019050612c5c600083018461299f565b92915050565b600082825260208201905092915050565b6000612c7e82612f64565b9150612c8983612f64565b9250827fffffffffffffffffffffffffffffffffffffffffffffffffffffffffffffffff03821115612cbe57612cbd613027565b5b828201905092915050565b6000612cd482612f3a565b9150612cdf83612f3a565b925082612cef57612cee613056565b5b600160000383147f800000000000000000000000000000000000000000000000000000000000000083141615612d2857612d27613027565b5b828205905092915050565b6000612d3e82612f64565b9150612d4983612f64565b925082612d5957612d58613056565b5b828204905092915050565b6000612d6f82612f3a565b9150612d7a83612f3a565b9250827f7fffffffffffffffffffffffffffffffffffffffffffffffffffffffffffffff0482116000841360008413161615612db957612db8613027565b5b817f80000000000000000000000000000000000000000000000000000000000000000583126000841260008413161615612df657612df5613027565b5b827f80000000000000000000000000000000000000000000000000000000000000000582126000841360008412161615612e3357612e32613027565b5b827f7fffffffffffffffffffffffffffffffffffffffffffffffffffffffffffffff0582126000841260008412161615612e7057612e6f613027565b5b828202905092915050565b6000612e8682612f64565b9150612e9183612f64565b9250817fffffffffffffffffffffffffffffffffffffffffffffffffffffffffffffffff0483118215151615612eca57612ec9613027565b5b828202905092915050565b6000612ee082612f64565b9150612eeb83612f64565b925082821015612efe57612efd613027565b5b828203905092915050565b6000612f1482612f44565b9050919050565b60008115159050919050565b6000819050612f35826132c8565b919050565b6000819050919050565b600073ffffffffffffffffffffffffffffffffffffffff82169050919050565b6000819050919050565b600069ffffffffffffffffffff82169050919050565b6000612f8f82612f96565b9050919050565b6000612fa182612f44565b9050919050565b6000612fb382612fba565b9050919050565b6000612fc582612f44565b9050919050565b6000612fd782612f27565b9050919050565b6000612fe982612f64565b91507fffffffffffffffffffffffffffffffffffffffffffffffffffffffffffffffff82141561301c5761301b613027565b5b600182019050919050565b7f4e487b7100000000000000000000000000000000000000000000000000000000600052601160045260246000fd5b7f4e487b7100000000000000000000000000000000000000000000000000000000600052601260045260246000fd5b7f4e487b7100000000000000000000000000000000000000000000000000000000600052602160045260246000fd5b600080fd5b7f4f776e61626c653a206e6577206f776e657220697320746865207a65726f206160008201527f6464726573730000000000000000000000000000000000000000000000000000602082015250565b7f43726f776473616c653a206e6f74206f70656e65640000000000000000000000600082015250565b7f43726f776473616c653a20616c72656164792066696e616c697a656400000000600082015250565b7f43726f776473616c653a206e657720656e6474696d65206d757374206265206160008201527f667465722063757272656e7420656e6474696d65000000000000000000000000602082015250565b7f4f776e61626c653a2063616c6c6572206973206e6f7420746865206f776e6572600082015250565b7f526f756e64206e6f7420636f6d706c6574650000000000000000000000000000600082015250565b7f43726f776473616c653a20686173206e6f7420656e6465640000000000000000600082015250565b7f72657175657374206e6f742077697468696e20746865206361702072616e6765600082015250565b7f746f6b656e20726571756573746564206e6f7420617661696c61626c65000000600082015250565b7f43726f776473616c653a206e6f74206f70656e00000000000000000000000000600082015250565b7f43726f776473616c653a20636c6f736520616c72656164790000000000000000600082015250565b600681106132d9576132d8613085565b5b50565b6132e581612f09565b81146132f057600080fd5b50565b6132fc81612f1b565b811461330757600080fd5b50565b6006811061331757600080fd5b50565b61332381612f3a565b811461332e57600080fd5b50565b61333a81612f64565b811461334557600080fd5b50565b61335181612f6e565b811461335c57600080fd5b5056fea2646970667358221220b4038d08719d1c490ef9503d1d38795a5eb51090944addf2dd754b377869329e64736f6c63430008050033",
  "immutableReferences": {},
  "source": "pragma solidity^0.8;\n\n\nimport \"./MulaToken.sol\"; \nimport \"./MulaInvestorsVault.sol\"; \nimport \"@openzeppelin/contracts/access/Ownable.sol\";\nimport \"@openzeppelin/contracts/utils/math/SafeMath.sol\";\nimport \"@chainlink/contracts/src/v0.6/interfaces/AggregatorV3Interface.sol\";\n\ncontract MulaTokenCrowdSale  is Ownable{\n    /**\n    * @Legend: CrowdsalePeriodExtended = CPE\n    * @Legend: CrowdsaleOperationFinished = COF\n    */\n    using SafeMath for uint256;\n    address payable admin;\n    MulaToken public _tokenContract;\n    MulaInvestorsVault public _vaultContract;\n    uint256 public _rate; //1MULA == 0.0095 usd\n    uint256 public _tokensSold;\n    uint256 public _weiRaised;\n    uint256  _tokensReamaining; \n    address payable  _wallet; \n\n    uint256 _startTime;\n    uint256 _endTime;\n    bool private _finalized;\n    event COF();\n    event CPE(uint256 oldEndTime, uint256 newEndTime);\n    // Crowdsale Stages\n    enum CrowdsaleStage { PreSale,PrivateSale,PublicSale_1, PublicSale_2,Paused,Ended }\n    // Default to presale stage\n    CrowdsaleStage public stage = CrowdsaleStage.Paused;\n    // Track investor contributions\n    uint256 public investorMinCap;\n    uint256 public investorHardCap;\n    uint256  mulaHardCap = 25000000;\n    uint256  mulaSoftCap = 5000000;\n\n    mapping(CrowdsaleStage=> mapping(address => uint256)) _contributions;\n    mapping(CrowdsaleStage=> mapping(address => uint256)) _receiving;\n    mapping(CrowdsaleStage=> uint256) public CrowdsaleStageBalance;\n\n    uint numParticipants;\n\n    AggregatorV3Interface internal ETHUSD;\n    AggregatorV3Interface internal BNBUSD;\n\n    address ETHUSD_Aggregator = 0x8A753747A1Fa494EC906cE90E9f37563A8AF630e;\n    address BNBUSD_Aggregator = 0xcf0f51ca2cDAecb464eeE4227f5295F2384F84ED;\n\n    address payable _DevMarketing;\n    address payable _FounderFund1;\n    address payable _FounderFund2;\n    address payable _ListingLiquidity;\n    address payable _OperationsManagement;\n\n    uint256 public _DevMarketingPercentage = 8;\n    uint256 public _FounderFund1Percentage = 9;\n    uint256 public _FounderFund2Percentage = 9;\n    uint256 public _ListingLiquidityPercentage = 20;\n    uint256 public _OperationsManagementPercentage =4;\n\n    uint256 public _DevMarketing_percentPerReleaseInterval = 5;\n    uint256 public _FounderFund1_percentPerReleaseInterval = 20;\n    uint256 public _FounderFund2_percentPerReleaseInterval = 20;\n    uint256 public _ListingLiquidity_percentPerReleaseInterval = 10;\n    uint256 public _OperationsManagement_percentPerReleaseInterval =100;\n\n    uint256 public _DevMarketing_ReleaseInterval = 1; //monthly \n    uint256 public _FounderFund1_ReleaseInterval = 3; //every 3 month\n    uint256 public _FounderFund2_ReleaseInterval = 3; //every 3 month\n    uint256 public _ListingLiquidity_ReleaseInterval = 1; //monthly\n    uint256 public _OperationsManagement_ReleaseInterval =1;\n\n    uint256 public _DevMarketing_TotalDur = 20; //held for 20 month space\n    uint256 public _FounderFund1_TotalDur = 15;\n    uint256 public _FounderFund2_TotalDur = 15;\n    uint256 public _ListingLiquidity_TotalDur = 10;\n    uint256 public _OperationsManagement_TotalDur =1;\n\n    uint256 public _DevMarketing_ID = 8976; //held for 20 month space\n    uint256 public _FounderFund1_ID = 7654;\n    uint256 public _FounderFund2_ID = 1509;\n    uint256 public _ListingLiquidity_ID = 6609;\n    uint256 public _OperationsManagement_ID =7654;\n\n    /**\n     * @dev Reverts if not in crowdsale time range.\n     */\n    modifier onlyWhileOpen {\n        require(isOpen(), \"Crowdsale: not open\");\n        _;\n    }\n\n\n    constructor(\n                MulaToken token,\n                MulaInvestorsVault vault,\n                uint256 startingTime,\n                uint256 endingTime,\n                address payable wallet,\n                address payable DevMarketing,\n                address payable FounderFund1,\n                address payable FounderFund2, \n                address payable ListingLiquidity,\n                address payable OperationsManagement\n                )\n    Ownable()\n    {\n        // \n        require(startingTime >= block.timestamp, \"Crowdsale: start time is before current time\");\n        //\n        require(endingTime > startingTime, \"Crowdsale: start time is invalid\");\n        //assign an admin\n        admin =  payable (msg.sender);\n        //link to token contract \n        _tokenContract = token;\n        //link to token contract \n        _vaultContract = vault;\n        //token wallet \n        _wallet = wallet;\n        //set default stage balance \n        updateStage(4);\n        ETHUSD = AggregatorV3Interface(ETHUSD_Aggregator);\n        BNBUSD = AggregatorV3Interface(BNBUSD_Aggregator);\n\n        _startTime = startingTime;\n        _endTime = endingTime;\n        _finalized = false;\n\n        _DevMarketing = DevMarketing;\n        _FounderFund1 = FounderFund1;\n        _FounderFund2 = FounderFund2;\n        _ListingLiquidity = ListingLiquidity;\n        _OperationsManagement = OperationsManagement;\n    }\n    function participatEth(uint80 _roundId)payable public onlyWhileOpen returns (bool success){\n        \n        uint256 _numberOfTokens = _mulaReceiving(msg.value,_roundId);\n        \n        _preValidateParticipation(msg.value, _numberOfTokens, msg.sender);\n        //require that the transaction is successful \n        _processParticipation(msg.sender, _numberOfTokens);\n        //record participant givings and receivings\n        _updateParticipantBalance(msg.sender,msg.value,_numberOfTokens);\n        //track number of tokens sold  and amount raised\n        _tokensSold += _numberOfTokens;\n        _weiRaised += msg.value;\n        //subtract from crowdsale stage balance \n        _subFromCrowdsaleStageBalance(_numberOfTokens);\n        return true;\n    }\n    function _mulaReceiving(uint256 _weiSent, uint80 _roundId) internal view returns (uint256 ){\n        int _ethUsdRate =  getTheETHUSDPrice(_roundId);\n        int _ethMulRate = int(_rate)/(_ethUsdRate/100000000);\n        uint256 _weiMulRate =  uint256((_ethMulRate * 10 **18 )/100000000);\n        uint256 tempR = _weiSent.div(_weiMulRate) ;\n\n        return tempR * 10 ** 18;\n    }\n    //sets the ICO Stage, rates  and the CrowdsaleStageBalance \n    function updateStage(uint _stage)public onlyOwner returns (bool success){\n\n         if(uint(CrowdsaleStage.PreSale) == _stage) {\n          stage = CrowdsaleStage.PreSale;\n          CrowdsaleStageBalance[stage]=9000000 * (10**18) ; //\n          investorMinCap   = 0.1 * (10**18);\n          investorHardCap  = 1.5 * (10**18);\n          _rate = 0.0095 * (10**8); //usd \n        } else if (uint(CrowdsaleStage.PrivateSale) == _stage) {\n          stage = CrowdsaleStage.PrivateSale;\n          CrowdsaleStageBalance[stage]=11250000 * (10**18); //\n          investorMinCap   = 0.2 * (10**18);\n          investorHardCap  = 10 * (10**18);\n           _rate = 0.025 * (10**8); //usd\n        }else if (uint(CrowdsaleStage.PublicSale_1) == _stage) {\n         stage = CrowdsaleStage.PrivateSale;\n          CrowdsaleStageBalance[stage]=13500000 * (10**18); //\n          investorMinCap   = 0.25 * (10**18);\n          investorHardCap  = 25 * (10**18);\n           _rate = 0.045 * (10**8); // usd\n        }else if(uint(CrowdsaleStage.PublicSale_2) == _stage){\n            stage = CrowdsaleStage.PublicSale_2;\n          CrowdsaleStageBalance[stage]=11250000 * (10**18);\n          investorMinCap   = 0.5 * (10**18);\n          investorHardCap  = 50 * (10**18);\n           _rate = 0.065 * (10**8); //0.1 eth\n        }else if(uint(CrowdsaleStage.Paused) == _stage){\n            stage = CrowdsaleStage.Paused;\n            CrowdsaleStageBalance[stage]=0;\n            _rate = 0; //0.00 eth\n        }else if(uint(CrowdsaleStage.Ended) == _stage){\n            stage = CrowdsaleStage.Ended;\n            CrowdsaleStageBalance[stage]=0;\n            _rate = 0; //0.00 eth\n        }\n\n\n        return true;\n    }\n    function getStageBalance() public view returns (uint256) {\n        return CrowdsaleStageBalance[stage];\n    }\n    function getParticipantGivings(address _participant) public view returns (uint256){\n        return _contributions[stage][_participant];\n    }\n    function getParticipantReceivings(address _participant) public view returns (uint256){\n        return _receiving[stage][_participant];\n    }\n    function _updateParticipantBalance(address _participant, uint256 _giving,uint256 _numOfTokens) internal{\n        uint256 oldGivings = getParticipantGivings(_participant);\n        uint256 oldReceivings = getParticipantReceivings(_participant);\n        \n        uint256 newGivings = oldGivings.add(_giving);\n        uint256 newReceiving = oldReceivings.add(_numOfTokens);\n        \n        _contributions[stage][_participant] = newGivings;\n        _receiving[stage][_participant] = newReceiving;\n    }\n    function _isIndividualCapped(address _participant, uint256 _weiAmount)  internal view returns (bool){\n        uint256 _oldGiving = getParticipantGivings(_participant);\n        uint256 _newGiving = _oldGiving.add(_weiAmount);\n        require(_newGiving >= investorMinCap && _newGiving <= investorHardCap);\n        return true;\n    }\n    function _addToCrowdsaleStageBalance(uint256 amount)  internal{\n        uint256 currentBal = getStageBalance();\n        uint256 newBal = currentBal.add(amount);\n        CrowdsaleStageBalance[stage]=newBal;\n    }\n    function _subFromCrowdsaleStageBalance(uint256 amount)  internal{\n        uint256 currentBal = getStageBalance();\n        uint256 newBal = currentBal.sub(amount);\n        CrowdsaleStageBalance[stage]=newBal;\n    }\n    function _preValidateParticipation(uint256 _sentValue,uint256 _numberOfTokens, address _participant) internal view {\n        //Require that contract has enough tokens \n        require(_tokenContract.balanceOf(address(this)) >= _numberOfTokens,'token requested not available');\n        //require that participant giving is between the caped range per stage\n        require(_isIndividualCapped(_participant,  _sentValue),'request not within the cap range');\n    }\n    function _processParticipation(address recipient, uint256 amount) internal{\n        require( _forwardFunds());\n        require(_tokenContract.transfer(recipient, amount));\n    }\n    function r () public {\n        _tokenContract.releaseTokenTransfer();\n    }\n\n    /**\n     * Returns the ETHUSD latest price\n     */\n    function getTheETHUSDPrice(uint80 roundId) internal view returns (int) {\n        (\n            uint80 id, \n            int price,\n            uint startedAt,\n            uint timeStamp,\n            uint80 answeredInRound\n        ) = ETHUSD.getRoundData(roundId);\n        require(timeStamp > 0, \"Round not complete\");\n        require(block.timestamp <= timeStamp + 1 days);\n        return price;\n    }\n    /**\n     * Returns the BNBUSD latest price\n     */\n    function getTheBNBUSDPrice(uint80 roundId) internal view returns (int) {\n        (\n            uint80 id, \n            int price,\n            uint startedAt,\n            uint timeStamp,\n            uint80 answeredInRound\n        ) = BNBUSD.getRoundData(roundId);\n         require(timeStamp > 0, \"Round not complete\");\n         require(block.timestamp <= timeStamp + 1 days);\n        return price;\n    }\n   /**\n   * @dev forwards funds to the sale Walletcrowdsale.isOpen\n   */\n  function _forwardFunds() internal returns (bool){\n    _wallet.transfer(msg.value);\n    return true;\n  }\n\n    function startTime() public view returns (uint256) {\n        return _startTime;\n    }\n    function endTime() public view returns (uint256) {\n        return _endTime;\n    }\n    function isOpen() public view returns (bool) {\n       require(block.timestamp >= _startTime && block.timestamp <= _endTime ,\"Crowdsale: not opened\");\n       require(stage != CrowdsaleStage.Paused && stage != CrowdsaleStage.Ended,\"Crowdsale: not opened\");\n       return true;\n    }\n    function hasClosed() public view returns (bool) {\n        return block.timestamp > _endTime;\n    }\n    function _extendTime(uint256 newEndTime) public onlyOwner {\n        require(!hasClosed(), \"Crowdsale: close already\");\n        require(newEndTime > _endTime, \"Crowdsale: new endtime must be after current endtime\");\n\n        emit CPE(_endTime, newEndTime);\n        _endTime = newEndTime;\n    }\n    function getSoftCap() public view returns (uint256){\n        return mulaSoftCap;\n    }\n    function getHardCap() public view returns (uint256){\n        return mulaHardCap;\n    }\n    function isFinalized() public view returns (bool) {\n        return _finalized;\n    }\n    function finalize() public onlyOwner{\n        require(!_finalized, \"Crowdsale: already finalized\");\n        require(hasClosed(), \"Crowdsale: has not ended\");\n        uint totalSup = 100000000;\n\n        _finalized = true;\n\n        //Dev&Marketing\n        uint devmarketTotal = (totalSup * (_DevMarketingPercentage * 100) ) /10000; \n        EffectDistributionAndLockRelease(_DevMarketing, devmarketTotal, _DevMarketing_TotalDur, _DevMarketing_ReleaseInterval, _DevMarketing_percentPerReleaseInterval,_DevMarketing_ID);\n\n        //Founder 1\n        uint founder1Total = (totalSup * (_FounderFund1Percentage * 100) ) /10000; \n        EffectDistributionAndLockRelease(_FounderFund1, founder1Total, _FounderFund1_TotalDur, _FounderFund1_ReleaseInterval, _FounderFund1_percentPerReleaseInterval,_FounderFund1_ID);\n\n        //Founder 2\n        uint founder2Total = (totalSup * (_FounderFund2Percentage * 100) ) /10000; \n        EffectDistributionAndLockRelease(_FounderFund1, founder2Total, _FounderFund2_TotalDur, _FounderFund2_ReleaseInterval, _FounderFund2_percentPerReleaseInterval,_FounderFund2_ID);\n\n        //Listing & Liquidity\n        uint listingLiquidityTotal = (totalSup * (_ListingLiquidityPercentage * 100) ) /10000; \n        EffectDistributionAndLockRelease(_ListingLiquidity, listingLiquidityTotal, _ListingLiquidity_TotalDur, _ListingLiquidity_ReleaseInterval, _ListingLiquidity_percentPerReleaseInterval,_ListingLiquidity_ID);\n\n        //Operations & Management\n        uint operationsManagementTotal = (totalSup * (_OperationsManagementPercentage * 100) ) /10000;\n        EffectDistributionAndLockRelease(_OperationsManagement, operationsManagementTotal, _OperationsManagement_TotalDur, _OperationsManagement_ReleaseInterval, _OperationsManagement_percentPerReleaseInterval,_OperationsManagement_ID);\n\n        emit COF();\n    }\n    function EffectDistributionAndLockRelease(address _beneficiary, uint _totalValue,uint  _totalDur, uint _releaseInterval, uint _percentPerReleaseInterval,uint identifier) internal returns (bool){\n\n            uint intervalValue;\n            uint releaseDay;\n            uint totalValue = _totalValue;\n            uint totalDur = _totalDur;\n            uint interval = _releaseInterval; \n            uint percentPerInterval = _percentPerReleaseInterval;\n            intervalValue = (totalValue * (percentPerInterval * 100) ) /10000;\n            intervalValue = (totalValue * (percentPerInterval * 100) ) /10000;\n            for (interval; interval <= totalDur; interval ++ ) {  //for loop example\n                releaseDay = block.timestamp + interval * 1 days; //CHANGE BACK TO 30 DAYS\n                _vaultContract.depositToVault(_beneficiary, intervalValue * (10 **18) , releaseDay,identifier);\n            }\n        return true;\n    }\n\n\n\n\n}",
  "sourcePath": "/Users/mapps/dApps/mula/contracts/MulaTokenCrowdSale.sol",
  "compiler": {
    "name": "solc",
    "version": "0.8.5+commit.a4f2e591.Emscripten.clang"
  },
  "schemaVersion": "3.4.1",
  "updatedAt": "2021-06-21T03:59:04.204Z",
  "devdoc": {
    "kind": "dev",
    "methods": {
      "owner()": {
        "details": "Returns the address of the current owner."
      },
      "renounceOwnership()": {
        "details": "Leaves the contract without owner. It will not be possible to call `onlyOwner` functions anymore. Can only be called by the current owner. NOTE: Renouncing ownership will leave the contract without an owner, thereby removing any functionality that is only available to the owner."
      },
      "transferOwnership(address)": {
        "details": "Transfers ownership of the contract to a new account (`newOwner`). Can only be called by the current owner."
      }
    },
    "version": 1
  },
  "userdoc": {
    "kind": "user",
    "methods": {},
    "version": 1
  }
}