{
  "contractName": "MulaToken",
  "abi": [
    {
      "inputs": [],
      "stateMutability": "nonpayable",
      "type": "constructor"
    },
    {
      "anonymous": false,
      "inputs": [
        {
          "indexed": true,
          "internalType": "address",
          "name": "owner",
          "type": "address"
        },
        {
          "indexed": true,
          "internalType": "address",
          "name": "spender",
          "type": "address"
        },
        {
          "indexed": false,
          "internalType": "uint256",
          "name": "value",
          "type": "uint256"
        }
      ],
      "name": "Approval",
      "type": "event"
    },
    {
      "anonymous": false,
      "inputs": [
        {
          "indexed": true,
          "internalType": "address",
          "name": "previousOwner",
          "type": "address"
        },
        {
          "indexed": true,
          "internalType": "address",
          "name": "newOwner",
          "type": "address"
        }
      ],
      "name": "OwnershipTransferred",
      "type": "event"
    },
    {
      "anonymous": false,
      "inputs": [
        {
          "indexed": true,
          "internalType": "address",
          "name": "from",
          "type": "address"
        },
        {
          "indexed": true,
          "internalType": "address",
          "name": "to",
          "type": "address"
        },
        {
          "indexed": false,
          "internalType": "uint256",
          "name": "value",
          "type": "uint256"
        }
      ],
      "name": "Transfer",
      "type": "event"
    },
    {
      "inputs": [
        {
          "internalType": "address",
          "name": "owner",
          "type": "address"
        },
        {
          "internalType": "address",
          "name": "spender",
          "type": "address"
        }
      ],
      "name": "allowance",
      "outputs": [
        {
          "internalType": "uint256",
          "name": "",
          "type": "uint256"
        }
      ],
      "stateMutability": "view",
      "type": "function",
      "constant": true
    },
    {
      "inputs": [
        {
          "internalType": "address",
          "name": "spender",
          "type": "address"
        },
        {
          "internalType": "uint256",
          "name": "amount",
          "type": "uint256"
        }
      ],
      "name": "approve",
      "outputs": [
        {
          "internalType": "bool",
          "name": "",
          "type": "bool"
        }
      ],
      "stateMutability": "nonpayable",
      "type": "function"
    },
    {
      "inputs": [
        {
          "internalType": "address",
          "name": "account",
          "type": "address"
        }
      ],
      "name": "balanceOf",
      "outputs": [
        {
          "internalType": "uint256",
          "name": "",
          "type": "uint256"
        }
      ],
      "stateMutability": "view",
      "type": "function",
      "constant": true
    },
    {
      "inputs": [],
      "name": "crowdsale",
      "outputs": [
        {
          "internalType": "address",
          "name": "",
          "type": "address"
        }
      ],
      "stateMutability": "view",
      "type": "function",
      "constant": true
    },
    {
      "inputs": [],
      "name": "decimals",
      "outputs": [
        {
          "internalType": "uint8",
          "name": "",
          "type": "uint8"
        }
      ],
      "stateMutability": "view",
      "type": "function",
      "constant": true
    },
    {
      "inputs": [
        {
          "internalType": "address",
          "name": "spender",
          "type": "address"
        },
        {
          "internalType": "uint256",
          "name": "subtractedValue",
          "type": "uint256"
        }
      ],
      "name": "decreaseAllowance",
      "outputs": [
        {
          "internalType": "bool",
          "name": "",
          "type": "bool"
        }
      ],
      "stateMutability": "nonpayable",
      "type": "function"
    },
    {
      "inputs": [
        {
          "internalType": "address",
          "name": "spender",
          "type": "address"
        },
        {
          "internalType": "uint256",
          "name": "addedValue",
          "type": "uint256"
        }
      ],
      "name": "increaseAllowance",
      "outputs": [
        {
          "internalType": "bool",
          "name": "",
          "type": "bool"
        }
      ],
      "stateMutability": "nonpayable",
      "type": "function"
    },
    {
      "inputs": [],
      "name": "name",
      "outputs": [
        {
          "internalType": "string",
          "name": "",
          "type": "string"
        }
      ],
      "stateMutability": "view",
      "type": "function",
      "constant": true
    },
    {
      "inputs": [],
      "name": "owner",
      "outputs": [
        {
          "internalType": "address",
          "name": "",
          "type": "address"
        }
      ],
      "stateMutability": "view",
      "type": "function",
      "constant": true
    },
    {
      "inputs": [],
      "name": "released",
      "outputs": [
        {
          "internalType": "bool",
          "name": "",
          "type": "bool"
        }
      ],
      "stateMutability": "view",
      "type": "function",
      "constant": true
    },
    {
      "inputs": [],
      "name": "renounceOwnership",
      "outputs": [],
      "stateMutability": "nonpayable",
      "type": "function"
    },
    {
      "inputs": [],
      "name": "symbol",
      "outputs": [
        {
          "internalType": "string",
          "name": "",
          "type": "string"
        }
      ],
      "stateMutability": "view",
      "type": "function",
      "constant": true
    },
    {
      "inputs": [],
      "name": "totalSupply",
      "outputs": [
        {
          "internalType": "uint256",
          "name": "",
          "type": "uint256"
        }
      ],
      "stateMutability": "view",
      "type": "function",
      "constant": true
    },
    {
      "inputs": [
        {
          "internalType": "address",
          "name": "sender",
          "type": "address"
        },
        {
          "internalType": "address",
          "name": "recipient",
          "type": "address"
        },
        {
          "internalType": "uint256",
          "name": "amount",
          "type": "uint256"
        }
      ],
      "name": "transferFrom",
      "outputs": [
        {
          "internalType": "bool",
          "name": "",
          "type": "bool"
        }
      ],
      "stateMutability": "nonpayable",
      "type": "function"
    },
    {
      "inputs": [
        {
          "internalType": "address",
          "name": "newOwner",
          "type": "address"
        }
      ],
      "name": "transferOwnership",
      "outputs": [],
      "stateMutability": "nonpayable",
      "type": "function"
    },
    {
      "inputs": [],
      "name": "releaseTokenTransfer",
      "outputs": [],
      "stateMutability": "nonpayable",
      "type": "function"
    },
    {
      "inputs": [
        {
          "internalType": "address",
          "name": "_crowdsale",
          "type": "address"
        }
      ],
      "name": "setReleaser",
      "outputs": [],
      "stateMutability": "nonpayable",
      "type": "function"
    },
    {
      "inputs": [
        {
          "internalType": "address",
          "name": "_to",
          "type": "address"
        },
        {
          "internalType": "uint256",
          "name": "_value",
          "type": "uint256"
        }
      ],
      "name": "transfer",
      "outputs": [
        {
          "internalType": "bool",
          "name": "success",
          "type": "bool"
        }
      ],
      "stateMutability": "nonpayable",
      "type": "function"
    }
  ],
  "bytecode": "0x60806040526000600560146101000a81548160ff0219169083151502179055503480156200002c57600080fd5b506040518060400160405280600a81526020017f4d756c6120546f6b656e000000000000000000000000000000000000000000008152506040518060400160405280600481526020017f4d554c41000000000000000000000000000000000000000000000000000000008152508160039080519060200190620000b19291906200030c565b508060049080519060200190620000ca9291906200030c565b5050506000620000df6200019a60201b60201c565b905080600560006101000a81548173ffffffffffffffffffffffffffffffffffffffff021916908373ffffffffffffffffffffffffffffffffffffffff1602179055508073ffffffffffffffffffffffffffffffffffffffff16600073ffffffffffffffffffffffffffffffffffffffff167f8be0079c531659141344cd1fd0a4f28419497f9722a3daafe3b4186f6b6457e060405160405180910390a35062000194336305f5e100620001a260201b60201c565b62000568565b600033905090565b600073ffffffffffffffffffffffffffffffffffffffff168273ffffffffffffffffffffffffffffffffffffffff16141562000215576040517f08c379a00000000000000000000000000000000000000000000000000000000081526004016200020c90620003f4565b60405180910390fd5b62000229600083836200030760201b60201c565b80600260008282546200023d919062000444565b92505081905550806000808473ffffffffffffffffffffffffffffffffffffffff1673ffffffffffffffffffffffffffffffffffffffff168152602001908152602001600020600082825462000294919062000444565b925050819055508173ffffffffffffffffffffffffffffffffffffffff16600073ffffffffffffffffffffffffffffffffffffffff167fddf252ad1be2c89b69c2b068fc378daa952ba7f163c4a11628f55a4df523b3ef83604051620002fb919062000416565b60405180910390a35050565b505050565b8280546200031a90620004ab565b90600052602060002090601f0160209004810192826200033e57600085556200038a565b82601f106200035957805160ff19168380011785556200038a565b828001600101855582156200038a579182015b82811115620003895782518255916020019190600101906200036c565b5b5090506200039991906200039d565b5090565b5b80821115620003b85760008160009055506001016200039e565b5090565b6000620003cb601f8362000433565b9150620003d8826200053f565b602082019050919050565b620003ee81620004a1565b82525050565b600060208201905081810360008301526200040f81620003bc565b9050919050565b60006020820190506200042d6000830184620003e3565b92915050565b600082825260208201905092915050565b60006200045182620004a1565b91506200045e83620004a1565b9250827fffffffffffffffffffffffffffffffffffffffffffffffffffffffffffffffff03821115620004965762000495620004e1565b5b828201905092915050565b6000819050919050565b60006002820490506001821680620004c457607f821691505b60208210811415620004db57620004da62000510565b5b50919050565b7f4e487b7100000000000000000000000000000000000000000000000000000000600052601160045260246000fd5b7f4e487b7100000000000000000000000000000000000000000000000000000000600052602260045260246000fd5b7f45524332303a206d696e7420746f20746865207a65726f206164647265737300600082015250565b611be080620005786000396000f3fe608060405234801561001057600080fd5b50600436106101165760003560e01c8063715018a6116100a25780639c1e03a0116100715780639c1e03a0146102bf578063a457c2d7146102dd578063a9059cbb1461030d578063dd62ed3e1461033d578063f2fde38b1461036d57610116565b8063715018a61461025b5780638da5cb5b1461026557806395d89b411461028357806396132521146102a157610116565b80632fc2f907116100e95780632fc2f907146101b7578063313ce567146101d357806339509351146101f15780635f412d4f1461022157806370a082311461022b57610116565b806306fdde031461011b578063095ea7b31461013957806318160ddd1461016957806323b872dd14610187575b600080fd5b610123610389565b6040516101309190611525565b60405180910390f35b610153600480360381019061014e91906112e0565b61041b565b604051610160919061150a565b60405180910390f35b610171610439565b60405161017e9190611687565b60405180910390f35b6101a1600480360381019061019c9190611291565b610443565b6040516101ae919061150a565b60405180910390f35b6101d160048036038101906101cc919061122c565b610544565b005b6101db610604565b6040516101e891906116a2565b60405180910390f35b61020b600480360381019061020691906112e0565b61060d565b604051610218919061150a565b60405180910390f35b6102296106b9565b005b6102456004803603810190610240919061122c565b610730565b6040516102529190611687565b60405180910390f35b610263610778565b005b61026d6108b5565b60405161027a91906114ef565b60405180910390f35b61028b6108df565b6040516102989190611525565b60405180910390f35b6102a9610971565b6040516102b6919061150a565b60405180910390f35b6102c7610984565b6040516102d491906114ef565b60405180910390f35b6102f760048036038101906102f291906112e0565b6109aa565b604051610304919061150a565b60405180910390f35b610327600480360381019061032291906112e0565b610a9e565b604051610334919061150a565b60405180910390f35b61035760048036038101906103529190611255565b610b5a565b6040516103649190611687565b60405180910390f35b6103876004803603810190610382919061122c565b610be1565b005b606060038054610398906117eb565b80601f01602080910402602001604051908101604052809291908181526020018280546103c4906117eb565b80156104115780601f106103e657610100808354040283529160200191610411565b820191906000526020600020905b8154815290600101906020018083116103f457829003601f168201915b5050505050905090565b600061042f610428610d8d565b8484610d95565b6001905092915050565b6000600254905090565b6000610450848484610f60565b6000600160008673ffffffffffffffffffffffffffffffffffffffff1673ffffffffffffffffffffffffffffffffffffffff168152602001908152602001600020600061049b610d8d565b73ffffffffffffffffffffffffffffffffffffffff1673ffffffffffffffffffffffffffffffffffffffff1681526020019081526020016000205490508281101561051b576040517f08c379a0000000000000000000000000000000000000000000000000000000008152600401610512906115e7565b60405180910390fd5b61053885610527610d8d565b8584610533919061172f565b610d95565b60019150509392505050565b61054c610d8d565b73ffffffffffffffffffffffffffffffffffffffff1661056a6108b5565b73ffffffffffffffffffffffffffffffffffffffff16146105c0576040517f08c379a00000000000000000000000000000000000000000000000000000000081526004016105b790611607565b60405180910390fd5b80600660006101000a81548173ffffffffffffffffffffffffffffffffffffffff021916908373ffffffffffffffffffffffffffffffffffffffff16021790555050565b60006012905090565b60006106af61061a610d8d565b848460016000610628610d8d565b73ffffffffffffffffffffffffffffffffffffffff1673ffffffffffffffffffffffffffffffffffffffff16815260200190815260200160002060008873ffffffffffffffffffffffffffffffffffffffff1673ffffffffffffffffffffffffffffffffffffffff168152602001908152602001600020546106aa91906116d9565b610d95565b6001905092915050565b600660009054906101000a900473ffffffffffffffffffffffffffffffffffffffff1673ffffffffffffffffffffffffffffffffffffffff163373ffffffffffffffffffffffffffffffffffffffff161461071357600080fd5b6001600560146101000a81548160ff021916908315150217905550565b60008060008373ffffffffffffffffffffffffffffffffffffffff1673ffffffffffffffffffffffffffffffffffffffff168152602001908152602001600020549050919050565b610780610d8d565b73ffffffffffffffffffffffffffffffffffffffff1661079e6108b5565b73ffffffffffffffffffffffffffffffffffffffff16146107f4576040517f08c379a00000000000000000000000000000000000000000000000000000000081526004016107eb90611607565b60405180910390fd5b600073ffffffffffffffffffffffffffffffffffffffff16600560009054906101000a900473ffffffffffffffffffffffffffffffffffffffff1673ffffffffffffffffffffffffffffffffffffffff167f8be0079c531659141344cd1fd0a4f28419497f9722a3daafe3b4186f6b6457e060405160405180910390a36000600560006101000a81548173ffffffffffffffffffffffffffffffffffffffff021916908373ffffffffffffffffffffffffffffffffffffffff160217905550565b6000600560009054906101000a900473ffffffffffffffffffffffffffffffffffffffff16905090565b6060600480546108ee906117eb565b80601f016020809104026020016040519081016040528092919081815260200182805461091a906117eb565b80156109675780601f1061093c57610100808354040283529160200191610967565b820191906000526020600020905b81548152906001019060200180831161094a57829003601f168201915b5050505050905090565b600560149054906101000a900460ff1681565b600660009054906101000a900473ffffffffffffffffffffffffffffffffffffffff1681565b600080600160006109b9610d8d565b73ffffffffffffffffffffffffffffffffffffffff1673ffffffffffffffffffffffffffffffffffffffff16815260200190815260200160002060008573ffffffffffffffffffffffffffffffffffffffff1673ffffffffffffffffffffffffffffffffffffffff16815260200190815260200160002054905082811015610a76576040517f08c379a0000000000000000000000000000000000000000000000000000000008152600401610a6d90611667565b60405180910390fd5b610a93610a81610d8d565b858584610a8e919061172f565b610d95565b600191505092915050565b6000600560149054906101000a900460ff16610b45573373ffffffffffffffffffffffffffffffffffffffff16600660009054906101000a900473ffffffffffffffffffffffffffffffffffffffff1673ffffffffffffffffffffffffffffffffffffffff1614610b44576040517f08c379a0000000000000000000000000000000000000000000000000000000008152600401610b3b906115c7565b60405180910390fd5b5b610b4f83836111df565b506001905092915050565b6000600160008473ffffffffffffffffffffffffffffffffffffffff1673ffffffffffffffffffffffffffffffffffffffff16815260200190815260200160002060008373ffffffffffffffffffffffffffffffffffffffff1673ffffffffffffffffffffffffffffffffffffffff16815260200190815260200160002054905092915050565b610be9610d8d565b73ffffffffffffffffffffffffffffffffffffffff16610c076108b5565b73ffffffffffffffffffffffffffffffffffffffff1614610c5d576040517f08c379a0000000000000000000000000000000000000000000000000000000008152600401610c5490611607565b60405180910390fd5b600073ffffffffffffffffffffffffffffffffffffffff168173ffffffffffffffffffffffffffffffffffffffff161415610ccd576040517f08c379a0000000000000000000000000000000000000000000000000000000008152600401610cc490611567565b60405180910390fd5b8073ffffffffffffffffffffffffffffffffffffffff16600560009054906101000a900473ffffffffffffffffffffffffffffffffffffffff1673ffffffffffffffffffffffffffffffffffffffff167f8be0079c531659141344cd1fd0a4f28419497f9722a3daafe3b4186f6b6457e060405160405180910390a380600560006101000a81548173ffffffffffffffffffffffffffffffffffffffff021916908373ffffffffffffffffffffffffffffffffffffffff16021790555050565b600033905090565b600073ffffffffffffffffffffffffffffffffffffffff168373ffffffffffffffffffffffffffffffffffffffff161415610e05576040517f08c379a0000000000000000000000000000000000000000000000000000000008152600401610dfc90611647565b60405180910390fd5b600073ffffffffffffffffffffffffffffffffffffffff168273ffffffffffffffffffffffffffffffffffffffff161415610e75576040517f08c379a0000000000000000000000000000000000000000000000000000000008152600401610e6c90611587565b60405180910390fd5b80600160008573ffffffffffffffffffffffffffffffffffffffff1673ffffffffffffffffffffffffffffffffffffffff16815260200190815260200160002060008473ffffffffffffffffffffffffffffffffffffffff1673ffffffffffffffffffffffffffffffffffffffff168152602001908152602001600020819055508173ffffffffffffffffffffffffffffffffffffffff168373ffffffffffffffffffffffffffffffffffffffff167f8c5be1e5ebec7d5bd14f71427d1e84f3dd0314c0f7b2291e5b200ac8c7c3b92583604051610f539190611687565b60405180910390a3505050565b600073ffffffffffffffffffffffffffffffffffffffff168373ffffffffffffffffffffffffffffffffffffffff161415610fd0576040517f08c379a0000000000000000000000000000000000000000000000000000000008152600401610fc790611627565b60405180910390fd5b600073ffffffffffffffffffffffffffffffffffffffff168273ffffffffffffffffffffffffffffffffffffffff161415611040576040517f08c379a000000000000000000000000000000000000000000000000000000000815260040161103790611547565b60405180910390fd5b61104b8383836111fd565b60008060008573ffffffffffffffffffffffffffffffffffffffff1673ffffffffffffffffffffffffffffffffffffffff168152602001908152602001600020549050818110156110d1576040517f08c379a00000000000000000000000000000000000000000000000000000000081526004016110c8906115a7565b60405180910390fd5b81816110dd919061172f565b6000808673ffffffffffffffffffffffffffffffffffffffff1673ffffffffffffffffffffffffffffffffffffffff16815260200190815260200160002081905550816000808573ffffffffffffffffffffffffffffffffffffffff1673ffffffffffffffffffffffffffffffffffffffff168152602001908152602001600020600082825461116d91906116d9565b925050819055508273ffffffffffffffffffffffffffffffffffffffff168473ffffffffffffffffffffffffffffffffffffffff167fddf252ad1be2c89b69c2b068fc378daa952ba7f163c4a11628f55a4df523b3ef846040516111d19190611687565b60405180910390a350505050565b60006111f36111ec610d8d565b8484610f60565b6001905092915050565b505050565b60008135905061121181611b7c565b92915050565b60008135905061122681611b93565b92915050565b60006020828403121561123e57600080fd5b600061124c84828501611202565b91505092915050565b6000806040838503121561126857600080fd5b600061127685828601611202565b925050602061128785828601611202565b9150509250929050565b6000806000606084860312156112a657600080fd5b60006112b486828701611202565b93505060206112c586828701611202565b92505060406112d686828701611217565b9150509250925092565b600080604083850312156112f357600080fd5b600061130185828601611202565b925050602061131285828601611217565b9150509250929050565b61132581611763565b82525050565b61133481611775565b82525050565b6000611345826116bd565b61134f81856116c8565b935061135f8185602086016117b8565b6113688161187b565b840191505092915050565b60006113806023836116c8565b915061138b8261188c565b604082019050919050565b60006113a36026836116c8565b91506113ae826118db565b604082019050919050565b60006113c66022836116c8565b91506113d18261192a565b604082019050919050565b60006113e96026836116c8565b91506113f482611979565b604082019050919050565b600061140c602a836116c8565b9150611417826119c8565b604082019050919050565b600061142f6028836116c8565b915061143a82611a17565b604082019050919050565b60006114526020836116c8565b915061145d82611a66565b602082019050919050565b60006114756025836116c8565b915061148082611a8f565b604082019050919050565b60006114986024836116c8565b91506114a382611ade565b604082019050919050565b60006114bb6025836116c8565b91506114c682611b2d565b604082019050919050565b6114da816117a1565b82525050565b6114e9816117ab565b82525050565b6000602082019050611504600083018461131c565b92915050565b600060208201905061151f600083018461132b565b92915050565b6000602082019050818103600083015261153f818461133a565b905092915050565b6000602082019050818103600083015261156081611373565b9050919050565b6000602082019050818103600083015261158081611396565b9050919050565b600060208201905081810360008301526115a0816113b9565b9050919050565b600060208201905081810360008301526115c0816113dc565b9050919050565b600060208201905081810360008301526115e0816113ff565b9050919050565b6000602082019050818103600083015261160081611422565b9050919050565b6000602082019050818103600083015261162081611445565b9050919050565b6000602082019050818103600083015261164081611468565b9050919050565b600060208201905081810360008301526116608161148b565b9050919050565b60006020820190508181036000830152611680816114ae565b9050919050565b600060208201905061169c60008301846114d1565b92915050565b60006020820190506116b760008301846114e0565b92915050565b600081519050919050565b600082825260208201905092915050565b60006116e4826117a1565b91506116ef836117a1565b9250827fffffffffffffffffffffffffffffffffffffffffffffffffffffffffffffffff038211156117245761172361181d565b5b828201905092915050565b600061173a826117a1565b9150611745836117a1565b9250828210156117585761175761181d565b5b828203905092915050565b600061176e82611781565b9050919050565b60008115159050919050565b600073ffffffffffffffffffffffffffffffffffffffff82169050919050565b6000819050919050565b600060ff82169050919050565b60005b838110156117d65780820151818401526020810190506117bb565b838111156117e5576000848401525b50505050565b6000600282049050600182168061180357607f821691505b602082108114156118175761181661184c565b5b50919050565b7f4e487b7100000000000000000000000000000000000000000000000000000000600052601160045260246000fd5b7f4e487b7100000000000000000000000000000000000000000000000000000000600052602260045260246000fd5b6000601f19601f8301169050919050565b7f45524332303a207472616e7366657220746f20746865207a65726f206164647260008201527f6573730000000000000000000000000000000000000000000000000000000000602082015250565b7f4f776e61626c653a206e6577206f776e657220697320746865207a65726f206160008201527f6464726573730000000000000000000000000000000000000000000000000000602082015250565b7f45524332303a20617070726f766520746f20746865207a65726f20616464726560008201527f7373000000000000000000000000000000000000000000000000000000000000602082015250565b7f45524332303a207472616e7366657220616d6f756e742065786365656473206260008201527f616c616e63650000000000000000000000000000000000000000000000000000602082015250565b7f796f7520617265206e6f74207065726d697474656420746f206d616b6520747260008201527f616e73616374696f6e7300000000000000000000000000000000000000000000602082015250565b7f45524332303a207472616e7366657220616d6f756e742065786365656473206160008201527f6c6c6f77616e6365000000000000000000000000000000000000000000000000602082015250565b7f4f776e61626c653a2063616c6c6572206973206e6f7420746865206f776e6572600082015250565b7f45524332303a207472616e736665722066726f6d20746865207a65726f20616460008201527f6472657373000000000000000000000000000000000000000000000000000000602082015250565b7f45524332303a20617070726f76652066726f6d20746865207a65726f2061646460008201527f7265737300000000000000000000000000000000000000000000000000000000602082015250565b7f45524332303a2064656372656173656420616c6c6f77616e63652062656c6f7760008201527f207a65726f000000000000000000000000000000000000000000000000000000602082015250565b611b8581611763565b8114611b9057600080fd5b50565b611b9c816117a1565b8114611ba757600080fd5b5056fea26469706673582212205955edd13204e52f6364ead94afc3bf99a8c581594410c175b599f787c65aa1f64736f6c63430008040033",
  "immutableReferences": {},
  "source": "pragma solidity ^0.8.0;\n\nimport \"@openzeppelin/contracts/token/ERC20/ERC20.sol\";\nimport \"@openzeppelin/contracts/access/Ownable.sol\";\n\ncontract MulaToken is ERC20, Ownable {\n    \n    /** If false we are are in transfer lock up period.*/\n    bool public released = false;\n\n    /**Only the crowdsale address can make transfer during the lock up period */\n    address public crowdsale;\n\n    /** Limit token transfer until the lockup period is over.*/\n    modifier canTransfer() {\n        if(!released) {\n            require(crowdsale == msg.sender,\"you are not permitted to make transactions\");\n        }\n        _;\n    }\n    constructor() ERC20(\"Mula Token\", \"MULA\") {\n        _mint(msg.sender, 100000000);\n    }\n    /** Allow only the crowdsale address to relase the tokens into the wild */\n    function releaseTokenTransfer() public {\n        require (msg.sender == crowdsale);\n            released = true;       \n    }\n    //Set the crowdsale address. \n    function setReleaser(address _crowdsale) onlyOwner public {\n        crowdsale = _crowdsale;\n    }\n    function transfer(address _to, uint256 _value) canTransfer() public override returns (bool success) {\n        super.transfer(_to,_value);\n        return true;\n    }\n\n}",
  "sourcePath": "/Users/mapps/dApps/mula/contracts/MulaToken.sol",
  "compiler": {
    "name": "solc",
    "version": "0.8.4+commit.c7e474f2.Emscripten.clang"
  },
  "schemaVersion": "3.4.0",
  "updatedAt": "2021-05-19T08:57:38.004Z",
  "networkType": "ethereum",
  "devdoc": {
    "kind": "dev",
    "methods": {
      "allowance(address,address)": {
        "details": "See {IERC20-allowance}."
      },
      "approve(address,uint256)": {
        "details": "See {IERC20-approve}. Requirements: - `spender` cannot be the zero address."
      },
      "balanceOf(address)": {
        "details": "See {IERC20-balanceOf}."
      },
      "decimals()": {
        "details": "Returns the number of decimals used to get its user representation. For example, if `decimals` equals `2`, a balance of `505` tokens should be displayed to a user as `5,05` (`505 / 10 ** 2`). Tokens usually opt for a value of 18, imitating the relationship between Ether and Wei. This is the value {ERC20} uses, unless this function is overridden; NOTE: This information is only used for _display_ purposes: it in no way affects any of the arithmetic of the contract, including {IERC20-balanceOf} and {IERC20-transfer}."
      },
      "decreaseAllowance(address,uint256)": {
        "details": "Atomically decreases the allowance granted to `spender` by the caller. This is an alternative to {approve} that can be used as a mitigation for problems described in {IERC20-approve}. Emits an {Approval} event indicating the updated allowance. Requirements: - `spender` cannot be the zero address. - `spender` must have allowance for the caller of at least `subtractedValue`."
      },
      "increaseAllowance(address,uint256)": {
        "details": "Atomically increases the allowance granted to `spender` by the caller. This is an alternative to {approve} that can be used as a mitigation for problems described in {IERC20-approve}. Emits an {Approval} event indicating the updated allowance. Requirements: - `spender` cannot be the zero address."
      },
      "name()": {
        "details": "Returns the name of the token."
      },
      "owner()": {
        "details": "Returns the address of the current owner."
      },
      "renounceOwnership()": {
        "details": "Leaves the contract without owner. It will not be possible to call `onlyOwner` functions anymore. Can only be called by the current owner. NOTE: Renouncing ownership will leave the contract without an owner, thereby removing any functionality that is only available to the owner."
      },
      "symbol()": {
        "details": "Returns the symbol of the token, usually a shorter version of the name."
      },
      "totalSupply()": {
        "details": "See {IERC20-totalSupply}."
      },
      "transferFrom(address,address,uint256)": {
        "details": "See {IERC20-transferFrom}. Emits an {Approval} event indicating the updated allowance. This is not required by the EIP. See the note at the beginning of {ERC20}. Requirements: - `sender` and `recipient` cannot be the zero address. - `sender` must have a balance of at least `amount`. - the caller must have allowance for ``sender``'s tokens of at least `amount`."
      },
      "transferOwnership(address)": {
        "details": "Transfers ownership of the contract to a new account (`newOwner`). Can only be called by the current owner."
      }
    },
    "version": 1
  },
  "userdoc": {
    "kind": "user",
    "methods": {
      "crowdsale()": {
        "notice": "Only the crowdsale address can make transfer during the lock up period "
      },
      "releaseTokenTransfer()": {
        "notice": "Allow only the crowdsale address to relase the tokens into the wild "
      },
      "released()": {
        "notice": "If false we are are in transfer lock up period."
      }
    },
    "version": 1
  }
}