{
  "contractName": "MulaInvestorsVault",
  "abi": [
    {
      "inputs": [
        {
          "internalType": "contract MulaToken",
          "name": "token",
          "type": "address"
        }
      ],
      "stateMutability": "nonpayable",
      "type": "constructor"
    },
    {
      "anonymous": false,
      "inputs": [
        {
          "indexed": false,
          "internalType": "address",
          "name": "sender",
          "type": "address"
        },
        {
          "indexed": false,
          "internalType": "uint256",
          "name": "amount",
          "type": "uint256"
        },
        {
          "indexed": false,
          "internalType": "uint256",
          "name": "dueBy",
          "type": "uint256"
        }
      ],
      "name": "LogVaultDeposit",
      "type": "event"
    },
    {
      "anonymous": false,
      "inputs": [
        {
          "indexed": false,
          "internalType": "address",
          "name": "receiver",
          "type": "address"
        },
        {
          "indexed": false,
          "internalType": "uint256",
          "name": "amount",
          "type": "uint256"
        }
      ],
      "name": "LogVaultWithdrawal",
      "type": "event"
    },
    {
      "anonymous": false,
      "inputs": [
        {
          "indexed": true,
          "internalType": "address",
          "name": "previousOwner",
          "type": "address"
        },
        {
          "indexed": true,
          "internalType": "address",
          "name": "newOwner",
          "type": "address"
        }
      ],
      "name": "OwnershipTransferred",
      "type": "event"
    },
    {
      "inputs": [
        {
          "internalType": "address",
          "name": "",
          "type": "address"
        },
        {
          "internalType": "uint256",
          "name": "",
          "type": "uint256"
        }
      ],
      "name": "VaultKeys",
      "outputs": [
        {
          "internalType": "uint256",
          "name": "",
          "type": "uint256"
        }
      ],
      "stateMutability": "view",
      "type": "function",
      "constant": true
    },
    {
      "inputs": [
        {
          "internalType": "uint256",
          "name": "",
          "type": "uint256"
        }
      ],
      "name": "VaultStructs",
      "outputs": [
        {
          "internalType": "address",
          "name": "_beneficiary",
          "type": "address"
        },
        {
          "internalType": "uint256",
          "name": "_balanceDue",
          "type": "uint256"
        },
        {
          "internalType": "uint256",
          "name": "_dueBy",
          "type": "uint256"
        }
      ],
      "stateMutability": "view",
      "type": "function",
      "constant": true
    },
    {
      "inputs": [],
      "name": "owner",
      "outputs": [
        {
          "internalType": "address",
          "name": "",
          "type": "address"
        }
      ],
      "stateMutability": "view",
      "type": "function",
      "constant": true
    },
    {
      "inputs": [],
      "name": "renounceOwnership",
      "outputs": [],
      "stateMutability": "nonpayable",
      "type": "function"
    },
    {
      "inputs": [
        {
          "internalType": "address",
          "name": "newOwner",
          "type": "address"
        }
      ],
      "name": "transferOwnership",
      "outputs": [],
      "stateMutability": "nonpayable",
      "type": "function"
    },
    {
      "inputs": [],
      "name": "getOperator",
      "outputs": [
        {
          "internalType": "address",
          "name": "",
          "type": "address"
        }
      ],
      "stateMutability": "view",
      "type": "function",
      "constant": true
    },
    {
      "inputs": [
        {
          "internalType": "address",
          "name": "operator",
          "type": "address"
        }
      ],
      "name": "setOperator",
      "outputs": [
        {
          "internalType": "bool",
          "name": "",
          "type": "bool"
        }
      ],
      "stateMutability": "nonpayable",
      "type": "function"
    },
    {
      "inputs": [
        {
          "internalType": "address",
          "name": "_beneficiary",
          "type": "address"
        }
      ],
      "name": "getVaultKeys",
      "outputs": [
        {
          "internalType": "uint256[]",
          "name": "",
          "type": "uint256[]"
        }
      ],
      "stateMutability": "view",
      "type": "function",
      "constant": true
    },
    {
      "inputs": [
        {
          "internalType": "uint256",
          "name": "vaultKey",
          "type": "uint256"
        }
      ],
      "name": "getVaultRecord",
      "outputs": [
        {
          "internalType": "address",
          "name": "",
          "type": "address"
        },
        {
          "internalType": "uint256",
          "name": "",
          "type": "uint256"
        },
        {
          "internalType": "uint256",
          "name": "",
          "type": "uint256"
        }
      ],
      "stateMutability": "view",
      "type": "function",
      "constant": true
    },
    {
      "inputs": [
        {
          "internalType": "address",
          "name": "beneficiary",
          "type": "address"
        },
        {
          "internalType": "uint256",
          "name": "amount",
          "type": "uint256"
        },
        {
          "internalType": "uint256",
          "name": "dueBy",
          "type": "uint256"
        },
        {
          "internalType": "uint256",
          "name": "identifier",
          "type": "uint256"
        }
      ],
      "name": "depositToVault",
      "outputs": [],
      "stateMutability": "nonpayable",
      "type": "function"
    },
    {
      "inputs": [
        {
          "internalType": "uint256",
          "name": "vaultKey",
          "type": "uint256"
        }
      ],
      "name": "withdrawFromVault",
      "outputs": [
        {
          "internalType": "bool",
          "name": "success",
          "type": "bool"
        }
      ],
      "stateMutability": "nonpayable",
      "type": "function"
    }
  ],
  "bytecode": "0x60806040523480156200001157600080fd5b50604051620014c2380380620014c283398181016040528101906200003791906200014e565b6000620000496200012f60201b60201c565b9050806000806101000a81548173ffffffffffffffffffffffffffffffffffffffff021916908373ffffffffffffffffffffffffffffffffffffffff1602179055508073ffffffffffffffffffffffffffffffffffffffff16600073ffffffffffffffffffffffffffffffffffffffff167f8be0079c531659141344cd1fd0a4f28419497f9722a3daafe3b4186f6b6457e060405160405180910390a35080600160006101000a81548173ffffffffffffffffffffffffffffffffffffffff021916908373ffffffffffffffffffffffffffffffffffffffff16021790555050620001e7565b600033905090565b6000815190506200014881620001cd565b92915050565b600060208284031215620001675762000166620001c8565b5b6000620001778482850162000137565b91505092915050565b60006200018d82620001a8565b9050919050565b6000620001a18262000180565b9050919050565b600073ffffffffffffffffffffffffffffffffffffffff82169050919050565b600080fd5b620001d88162000194565b8114620001e457600080fd5b50565b6112cb80620001f76000396000f3fe608060405234801561001057600080fd5b50600436106100a95760003560e01c8063a18bbbe811610071578063a18bbbe814610154578063b3ab15fb14610184578063c68c1c8b146101b4578063e7f43c68146101e6578063ec4d9bd614610204578063f2fde38b14610234576100a9565b8063076d0815146100ae5780630991642b146100de5780631b3d3af1146100fa578063715018a61461012c5780638da5cb5b14610136575b600080fd5b6100c860048036038101906100c39190610d71565b610250565b6040516100d59190610f99565b60405180910390f35b6100f860048036038101906100f39190610cdd565b6103e4565b005b610114600480360381019061010f9190610d71565b6105f1565b60405161012393929190610f40565b60405180910390f35b61013461063b565b005b61013e610775565b60405161014b9190610efc565b60405180910390f35b61016e60048036038101906101699190610c9d565b61079e565b60405161017b9190611014565b60405180910390f35b61019e60048036038101906101999190610c70565b6107cf565b6040516101ab9190610f99565b60405180910390f35b6101ce60048036038101906101c99190610d71565b610897565b6040516101dd93929190610f40565b60405180910390f35b6101ee6108ef565b6040516101fb9190610efc565b60405180910390f35b61021e60048036038101906102199190610c70565b610919565b60405161022b9190610f77565b60405180910390f35b61024e60048036038101906102499190610c70565b6109b0565b005b6000806003600084815260200190815260200160002090503373ffffffffffffffffffffffffffffffffffffffff168160000160009054906101000a900473ffffffffffffffffffffffffffffffffffffffff1673ffffffffffffffffffffffffffffffffffffffff16146102c457600080fd5b42816002015411156102d557600080fd5b600081600101549050600082600101819055507f9f45696ee5fb0723e1d10503a9bac07a90f39845c636f6fe54143014105e1cf03382604051610319929190610f17565b60405180910390a1600160009054906101000a900473ffffffffffffffffffffffffffffffffffffffff1673ffffffffffffffffffffffffffffffffffffffff1663a9059cbb33836040518363ffffffff1660e01b815260040161037e929190610f17565b602060405180830381600087803b15801561039857600080fd5b505af11580156103ac573d6000803e3d6000fd5b505050506040513d601f19601f820116820180604052508101906103d09190610d44565b6103d957600080fd5b600192505050919050565b600260009054906101000a900473ffffffffffffffffffffffffffffffffffffffff1673ffffffffffffffffffffffffffffffffffffffff163373ffffffffffffffffffffffffffffffffffffffff1614610474576040517f08c379a000000000000000000000000000000000000000000000000000000000815260040161046b90610fd4565b60405180910390fd5b60006104808583610b59565b905061048a610bfa565b85816000019073ffffffffffffffffffffffffffffffffffffffff16908173ffffffffffffffffffffffffffffffffffffffff16815250508481602001818152505083816040018181525050806003600084815260200190815260200160002060008201518160000160006101000a81548173ffffffffffffffffffffffffffffffffffffffff021916908373ffffffffffffffffffffffffffffffffffffffff1602179055506020820151816001015560408201518160020155905050600460008773ffffffffffffffffffffffffffffffffffffffff1673ffffffffffffffffffffffffffffffffffffffff1681526020019081526020016000208290806001815401808255809150506001900390600052602060002001600090919091909150557fd7563152a4208d59485872f3ab36497767424efbd49da2f85c228f10c5e4fa923386866040516105e193929190610f40565b60405180910390a1505050505050565b60036020528060005260406000206000915090508060000160009054906101000a900473ffffffffffffffffffffffffffffffffffffffff16908060010154908060020154905083565b610643610bf2565b73ffffffffffffffffffffffffffffffffffffffff16610661610775565b73ffffffffffffffffffffffffffffffffffffffff16146106b7576040517f08c379a00000000000000000000000000000000000000000000000000000000081526004016106ae90610ff4565b60405180910390fd5b600073ffffffffffffffffffffffffffffffffffffffff1660008054906101000a900473ffffffffffffffffffffffffffffffffffffffff1673ffffffffffffffffffffffffffffffffffffffff167f8be0079c531659141344cd1fd0a4f28419497f9722a3daafe3b4186f6b6457e060405160405180910390a360008060006101000a81548173ffffffffffffffffffffffffffffffffffffffff021916908373ffffffffffffffffffffffffffffffffffffffff160217905550565b60008060009054906101000a900473ffffffffffffffffffffffffffffffffffffffff16905090565b600460205281600052604060002081815481106107ba57600080fd5b90600052602060002001600091509150505481565b60006107d9610bf2565b73ffffffffffffffffffffffffffffffffffffffff166107f7610775565b73ffffffffffffffffffffffffffffffffffffffff161461084d576040517f08c379a000000000000000000000000000000000000000000000000000000000815260040161084490610ff4565b60405180910390fd5b81600260006101000a81548173ffffffffffffffffffffffffffffffffffffffff021916908373ffffffffffffffffffffffffffffffffffffffff16021790555060019050919050565b6000806000806003600086815260200190815260200160002090508060000160009054906101000a900473ffffffffffffffffffffffffffffffffffffffff1681600101548260020154935093509350509193909250565b6000600260009054906101000a900473ffffffffffffffffffffffffffffffffffffffff16905090565b6060600460008373ffffffffffffffffffffffffffffffffffffffff1673ffffffffffffffffffffffffffffffffffffffff1681526020019081526020016000208054806020026020016040519081016040528092919081815260200182805480156109a457602002820191906000526020600020905b815481526020019060010190808311610990575b50505050509050919050565b6109b8610bf2565b73ffffffffffffffffffffffffffffffffffffffff166109d6610775565b73ffffffffffffffffffffffffffffffffffffffff1614610a2c576040517f08c379a0000000000000000000000000000000000000000000000000000000008152600401610a2390610ff4565b60405180910390fd5b600073ffffffffffffffffffffffffffffffffffffffff168173ffffffffffffffffffffffffffffffffffffffff161415610a9c576040517f08c379a0000000000000000000000000000000000000000000000000000000008152600401610a9390610fb4565b60405180910390fd5b8073ffffffffffffffffffffffffffffffffffffffff1660008054906101000a900473ffffffffffffffffffffffffffffffffffffffff1673ffffffffffffffffffffffffffffffffffffffff167f8be0079c531659141344cd1fd0a4f28419497f9722a3daafe3b4186f6b6457e060405160405180910390a3806000806101000a81548173ffffffffffffffffffffffffffffffffffffffff021916908373ffffffffffffffffffffffffffffffffffffffff16021790555050565b600080600460008573ffffffffffffffffffffffffffffffffffffffff1673ffffffffffffffffffffffffffffffffffffffff1681526020019081526020016000208054905090506000834283610bb091906110cf565b610bba9190611079565b90508044604051602001610bcf929190610ed0565b6040516020818303038152906040528051906020012060001c9250505092915050565b600033905090565b6040518060600160405280600073ffffffffffffffffffffffffffffffffffffffff16815260200160008152602001600081525090565b600081359050610c4081611250565b92915050565b600081519050610c5581611267565b92915050565b600081359050610c6a8161127e565b92915050565b600060208284031215610c8657610c856111aa565b5b6000610c9484828501610c31565b91505092915050565b60008060408385031215610cb457610cb36111aa565b5b6000610cc285828601610c31565b9250506020610cd385828601610c5b565b9150509250929050565b60008060008060808587031215610cf757610cf66111aa565b5b6000610d0587828801610c31565b9450506020610d1687828801610c5b565b9350506040610d2787828801610c5b565b9250506060610d3887828801610c5b565b91505092959194509250565b600060208284031215610d5a57610d596111aa565b5b6000610d6884828501610c46565b91505092915050565b600060208284031215610d8757610d866111aa565b5b6000610d9584828501610c5b565b91505092915050565b6000610daa8383610e9b565b60208301905092915050565b610dbf81611129565b82525050565b6000610dd08261103f565b610dda8185611057565b9350610de58361102f565b8060005b83811015610e16578151610dfd8882610d9e565b9750610e088361104a565b925050600181019050610de9565b5085935050505092915050565b610e2c8161113b565b82525050565b6000610e3f602683611068565b9150610e4a826111af565b604082019050919050565b6000610e62601a83611068565b9150610e6d826111fe565b602082019050919050565b6000610e85602083611068565b9150610e9082611227565b602082019050919050565b610ea481611167565b82525050565b610eb381611167565b82525050565b610eca610ec582611167565b611171565b82525050565b6000610edc8285610eb9565b602082019150610eec8284610eb9565b6020820191508190509392505050565b6000602082019050610f116000830184610db6565b92915050565b6000604082019050610f2c6000830185610db6565b610f396020830184610eaa565b9392505050565b6000606082019050610f556000830186610db6565b610f626020830185610eaa565b610f6f6040830184610eaa565b949350505050565b60006020820190508181036000830152610f918184610dc5565b905092915050565b6000602082019050610fae6000830184610e23565b92915050565b60006020820190508181036000830152610fcd81610e32565b9050919050565b60006020820190508181036000830152610fed81610e55565b9050919050565b6000602082019050818103600083015261100d81610e78565b9050919050565b60006020820190506110296000830184610eaa565b92915050565b6000819050602082019050919050565b600081519050919050565b6000602082019050919050565b600082825260208201905092915050565b600082825260208201905092915050565b600061108482611167565b915061108f83611167565b9250827fffffffffffffffffffffffffffffffffffffffffffffffffffffffffffffffff038211156110c4576110c361117b565b5b828201905092915050565b60006110da82611167565b91506110e583611167565b9250817fffffffffffffffffffffffffffffffffffffffffffffffffffffffffffffffff048311821515161561111e5761111d61117b565b5b828202905092915050565b600061113482611147565b9050919050565b60008115159050919050565b600073ffffffffffffffffffffffffffffffffffffffff82169050919050565b6000819050919050565b6000819050919050565b7f4e487b7100000000000000000000000000000000000000000000000000000000600052601160045260246000fd5b600080fd5b7f4f776e61626c653a206e6577206f776e657220697320746865207a65726f206160008201527f6464726573730000000000000000000000000000000000000000000000000000602082015250565b7f596f752063616e206e6f74207573652074686973207661756c74000000000000600082015250565b7f4f776e61626c653a2063616c6c6572206973206e6f7420746865206f776e6572600082015250565b61125981611129565b811461126457600080fd5b50565b6112708161113b565b811461127b57600080fd5b50565b61128781611167565b811461129257600080fd5b5056fea264697066735822122079a35dca6baed135cc5e48a0e0472a9f5be0e48680976971b844f447af494e0664736f6c63430008050033",
  "immutableReferences": {},
  "source": "pragma solidity ^0.8;\n\n\nimport \"./MulaToken.sol\"; \nimport \"@openzeppelin/contracts/access/Ownable.sol\";\n\ncontract MulaInvestorsVault is Ownable{\n    \n    MulaToken _token;\n    address _operator;\n\n    struct VaultStruct {\n        address _beneficiary;\n        uint256 _balanceDue;\n        uint256 _dueBy;\n    }\n    modifier onlyOperator {\n        require(msg.sender == _operator, \"You can not use this vault\");\n        _;\n    }\n    mapping(uint256 => VaultStruct) public VaultStructs; // This could be a mapping by address, but these numbered lockBoxes support possibility of multiple tranches per address\n    mapping(address => uint256[]) public VaultKeys; \n\n    event LogVaultDeposit(address sender, uint256 amount, uint256 dueBy);   \n    event LogVaultWithdrawal(address receiver, uint256 amount);\n\n    constructor(MulaToken token) Ownable() {\n        _token = token;\n    }\n\n    function getOperator() public view returns (address){\n        return _operator;\n    }\n    function setOperator(address operator) public onlyOwner returns (bool){\n          _operator = operator;\n          return true;\n    }\n    \n    function createVaultKey(address beneficiary, uint identifier) internal view returns (uint256) {\n         uint arrLen = VaultKeys[beneficiary].length;\n         uint enc = arrLen * block.timestamp + identifier;\n        return uint256( keccak256( abi.encodePacked(enc, block.difficulty)));\n    }\n    function getVaultKeys(address _beneficiary) public view returns (uint256[] memory) {\n        return VaultKeys[_beneficiary];\n    }\n\n    function getVaultRecord(uint vaultKey) public view returns (address,uint,uint){\n        VaultStruct storage v = VaultStructs[vaultKey];\n        return (v._beneficiary,v._balanceDue,v._dueBy);\n    }\n\n    function depositToVault(address beneficiary, uint256 amount, uint256 dueBy,uint identifier) onlyOperator public {\n        uint key = createVaultKey(beneficiary,identifier);\n        VaultStruct memory vault;\n        vault._beneficiary = beneficiary;\n        vault._balanceDue = amount;\n        vault._dueBy = dueBy;\n        VaultStructs[key] = vault;\n        VaultKeys[beneficiary].push(key);\n        emit LogVaultDeposit(msg.sender, amount, dueBy);\n    }\n\n    function withdrawFromVault(uint vaultKey) public returns(bool success) {\n        VaultStruct storage v = VaultStructs[vaultKey];\n        require(v._beneficiary == msg.sender);\n        require(v._dueBy <= block.timestamp);\n        uint256 amount = v._balanceDue;\n        v._balanceDue = 0;\n        emit LogVaultWithdrawal(msg.sender, amount);\n        require(_token.transfer(msg.sender, amount));\n        return true;\n    }    \n\n}",
  "sourcePath": "/Users/mapps/dApps/mula/contracts/MulaInvestorsVault.sol",
  "compiler": {
    "name": "solc",
    "version": "0.8.5+commit.a4f2e591.Emscripten.clang"
  },
  "schemaVersion": "3.4.1",
  "updatedAt": "2021-06-21T03:26:21.072Z",
  "networkType": "ethereum",
  "devdoc": {
    "kind": "dev",
    "methods": {
      "owner()": {
        "details": "Returns the address of the current owner."
      },
      "renounceOwnership()": {
        "details": "Leaves the contract without owner. It will not be possible to call `onlyOwner` functions anymore. Can only be called by the current owner. NOTE: Renouncing ownership will leave the contract without an owner, thereby removing any functionality that is only available to the owner."
      },
      "transferOwnership(address)": {
        "details": "Transfers ownership of the contract to a new account (`newOwner`). Can only be called by the current owner."
      }
    },
    "version": 1
  },
  "userdoc": {
    "kind": "user",
    "methods": {},
    "version": 1
  }
}